:100000000C94DF010C94FC010C94FC010C94FC0199
:100010000C94FC010C94FC010C94FC010C94FC016C
:100020000C94FC010C94FC010C94071D0C94D91D3C
:100030000C94F9170C94FC010C94FC010C94FC0139
:100040000C94FC010C94FC010C94FC010C94FC013C
:100050000C94FC010C9481180C94FC010C94FC0190
:100060000C94FC010C94FC010C94FC010C94FC011C
:100070000C94FC010C94FC010C94FC010C94FC010C
:100080000C94FC010C94FC010C94FC010C94FC01FC
:100090000C94FC010C94FC010C94FC010C94FC01EC
:1000A0000C94FC010C94FC010C94FC01AC04AC0419
:1000B000D804D80440055E05760676066905020672
:1000C00013061306461E6D1E651F6D1E651FB91EA5
:1000D000DC1E651F331F421F290014001A00080090
:1000E000150017001C0018000C00120013002A0055
:1000F0002B0004001600070009000A000B000D0089
:100100000E000F0033003400E1001D001B0006004C
:1001100019000500110010003600370052002800B9
:100120000351E000E200E30001512C002C000251D9
:100130003800500051004F0035001E001F00200005
:1001400021002200230024002500260027000100B2
:100150000100010001000100010001002D002E003E
:100160002F00300033003400E100010001000100E5
:1001700001000100010031003600370001000100DC
:100180000100E000E200E30001002C002C0002511D
:10019000380001000100010035021E021F0220028A
:1001A00021022202230224022502260227022A001B
:1001B0003A003B003C003D003E003F002D022E0275
:1001C0002F0230023302340240004100420043005B
:1001D00044004500010031023602370201000100EF
:1001E0000100E000E200E300015101000100010014
:1001F000380201000100010001000100ED000100D2
:1002000001000100F90001000100010001000100EE
:100210000100EF00EE00F0000100FB00FA00FC001E
:10022000F100F200F3000100E10001000100010013
:10023000FD00FE00FF0001000100010001000100BF
:100240000100E000E200E300015101000100025161
:1002500001000100010001001003700065006E0044
:100260006B0065007300750000000A035000650014
:100270006E006B0000000403090409023B00020148
:1002800000A0FA0904000001030101000921110185
:100290000001224000070581030800010904010054
:1002A000010300000009211101000122B600070529
:1002B00082032000011201000200000008EDFE6030
:1002C0006001000102000105010902A10185020986
:1002D00001A10005091901290815002501950875D6
:1002E0000181020501093009311581257F950275CB
:1002F00008810609381581257F9501750881060555
:100300000C0A38021581257F950175088106C0C049
:1003100005010980A101850319012AB700150126ED
:10032000B700950175108100C0050C0901A1018578
:100330000419012AA002150126A002950175108159
:1003400000C005010906A1018506050719E029E796
:10035000150025019508750181020507190029EF8F
:100360001500250195F0750181020508190129057F
:10037000950575019102950175039101C00501096B
:1003800006A101050719E029E71500250195087563
:100390000181029501750881010507190029FF15E2
:1003A0000026FF009506750881000508190129053A
:1003B000950575019102950175039101C000112405
:1003C0001FBECFEFDAE0DEBFCDBF11E0A0E0B1E0AD
:1003D000E0EEFFE302C005900D92A43AB107D9F711
:1003E00022E0A4EAB1E001C01D92AC3BB207E1F704
:1003F0000E9481120C94EE1F0C94000081E008957D
:1004000081E008950C94000208950C9404021F9357
:10041000CF93DF9300D000D01F92CDB7DEB74983D2
:100420005A836B833091A70189819A81311114C05D
:10043000662359F0222349F00E94B308182F682F31
:1004400089819A810E945C0803C00E948708182F46
:1004500069817A81812F04C00E94B30869817A8101
:100460000F900F900F900F900F90DF91CF911F91F1
:100470000C94E90FFC01262F408151816281738128
:1004800084810C94070281E00895CF93DF93EC01FF
:1004900060E00E943A02BE01DF91CF910C94050208
:1004A0000C9432110C942E1108950E9406070E949C
:1004B00054022FEF84E39CE0215080409040E1F70C
:1004C00000C000000C94A7180F931F93CF93DF93E5
:1004D0008C0161E00E943A02EC01B8010E94020224
:1004E0008823F1F1B801CE010E9444168823C1F19E
:1004F000B801CE010E945814882391F1B801CE01B1
:100500000E94A015882361F1F8018281882309F1F6
:10051000CB358DE5D807C1F050F4C115FCE5DF07F8
:1005200081F0CF3DDC45A9F40E94EA0D19C0CC351D
:10053000EDE5DE0761F0CD35DD4559F40E942D0D66
:1005400008C00E9455020CC00E94360D02C00E94D5
:10055000390DC801DF91CF911F910F910C94FE01CD
:1005600080E0DF91CF911F910F9108950E94DB17DA
:100570000C94CF020E94D2020C94E11708950C94BF
:10058000BE0281E008950C94C1020895CF93C82F54
:100590000E94BF028C2F0E94C302CF91089580E079
:1005A0000C94C6020E94A0160C94C6020E94A016CB
:1005B0009091A601891721F08093A6010C94C602A0
:1005C0000895CF93DF93CDB7DEB72B970FB6F8948E
:1005D000DEBF0FBECDBF4F83588769877A878B8771
:1005E00061110E94790C9E012F5F3F4F86E0F90157
:1005F00011928A95E9F785E0FE013796D9010190BD
:100600000D928A95E1F789819A814C815D81452B14
:1006100031F09F3F31F491E08F3F19F403C091E036
:1006200001C090E090FF09C049815A816B817C81B3
:100630008D819E810E949A0B05C0C9010E944302D0
:100640008111F2CF2B960FB6F894DEBF0FBECDBF4F
:10065000DF91CF910895FC01808191810E94F5087E
:100660000895CF93882309F4A4C0C82F8238C1F419
:100670000E94A01681FD9DC069E3809102019091C6
:1006800003010E9496170E949B0C2FEF81EE94E0CD
:10069000215080409040E1F700C0000069E319C09C
:1006A000833801F50E94A01680FD83C063E5809128
:1006B0000201909103010E9496170E949B0C2FEF5C
:1006C00081EE94E0215080409040E1F700C00000AE
:1006D00063E580910201909103010E94A117CF91DF
:1006E0000C949B0C8438C1F40E94A01682FD61C05A
:1006F00067E480910201909103010E9496170E9485
:100700009B0C2FEF81EE94E0215080409040E1F768
:1007100000C0000067E4DDCF8CEF8C0F813AD0F48D
:100720006C2F80910201909103010E94161788237B
:1007300049F06C2F80910201909103010E94A11752
:100740000E949B0C6C2F80910201909103010E94EA
:100750009617C5CF80E28C0F883048F4C77081E0CF
:1007600001C0880FCA95EAF70E945C0CB8CFEBE590
:10077000EC0FE33040F4F0E0E05AFE4F808190E06F
:10078000CF910C94D416E8E5EC0FE73150F4F0E08B
:10079000EE0FFF1FEE5CFE4F80819181CF910C9494
:1007A000EA16CD3E30F08C2F0E940513CF910C94A9
:1007B000AF13CF910895882309F464C0823879F487
:1007C0000E94A01681FF5EC069E3809102019091B2
:1007D00003010E9496170E949B0C69E310C08338A6
:1007E000B1F40E94A01680FF4DC063E58091020124
:1007F000909103010E9496170E949B0C63E58091E3
:100800000201909103010E94A1170C949B0C843863
:1008100079F40E94A01682FF35C067E4809102013E
:10082000909103010E9496170E949B0C67E4E7CF0A
:100830009CEF980F913A10F4682FE1CF90E2980F57
:10084000983050F4877091E001C0990F8A95EAF7CB
:10085000892F0E94620CD9CF9BE5980F933020F42A
:1008600080E090E00C94D41698E5980F973120F42E
:1008700080E090E00C94EA168D3E20F00E945C131C
:100880000C94AF1308951F93CF93DF93182FEB01B0
:100890000E943103209741F08FE99FE00197F1F723
:1008A00000C000002197F6CF812FDF91CF911F91DB
:1008B0000C94DB03893319F060E070E002C060E55E
:1008C00070E00C944304882321F00E945C0C0C948B
:1008D0009B0C0895882321F00E94620C0C949B0CC1
:1008E0000895CF92DF92EF92FF920F931F93CF93D1
:1008F000DF937C01D62FC72FFC0112810581029561
:100900000F700E94520C8823B9F01123A9F08C2F8C
:10091000807F803421F080E28D0F883068F08091F4
:100920009A0282FD09C082E00E94FB0C0E94520CD8
:1009300091E0D82ED92601C0D12CCC2EC2948FE0C4
:10094000C8228C2D90E08C30910508F0CFC1FC01BD
:10095000EA5AFF4F0C94991F8C2F807FCF70882309
:1009600011F0C295C07F112399F0CC2309F4AAC1DC
:1009700080E28D0F883010F0D11104C08C2F0E94BE
:100980005C0C03C08C2F0E946C0C0E949B0C9AC1C3
:100990008D2F0E94DB03CC2309F4A8C180E28D0FC8
:1009A000883038F1DD2329F18C2F0E94720C24C08D
:1009B0008C2F807FCF70803211F0C295C07FDD23F5
:1009C00019F0D130A1F13DC080919A0282FF17C089
:1009D000112349F0CC2329F08C2F0E945C0C0E943B
:1009E0009B0C80E070C180E00E94DB03CC2309F403
:1009F0007DC18C2F0E94620C0E949B0C77C1112339
:100A000071F0002341F0013031F40E947C0C8C2BFA
:100A10000E94840C6BC10E947C0C8C2B1DC0002397
:100A200019F0013009F462C10E94910C25C0112314
:100A300021F0063008F05AC10EC0053008F056C14A
:100A40001BC0112361F0002331F0F701858180FF85
:100A500039C18F7085838C2F0E94630447C10023A6
:100A600059F0D93309F03FC1FFEF07EE13E0F15021
:100A700000401040E1F735C18C2F0E946A0436C156
:100A80008C2F86958695837019F0813061F02EC188
:100A9000112321F08D2F9C2F937002C080E090E0F5
:100AA0000E94D4162BC1112321F08D2F9C2F9370FF
:100AB00002C080E090E00E94EA1620C18D2F112331
:100AC00019F00E94051302C00E945C130E94AF132C
:100AD00015C18C2F837009F047C011110BC12D2F48
:100AE000229526952770220F220F6D2F6F70862F6B
:100AF00090E0A0E0B0E0022E04C0880F991FAA1F6A
:100B0000BB1F0A94D2F7D4FF10C04FE050E060E062
:100B100070E004C0440F551F661F771F2A95D2F757
:100B2000409550956095709503C040E050E0BA0143
:100B3000C695C695C3708A019B01082B192B2A2BD9
:100B40003B2BC901B801C23049F058F4C13019F04B
:100B50000E947207CFC00E946007CCC00E94840729
:100B6000C9C00E945E07C6C0112319F08C2F817086
:100B700001C08695882309F4BDC02D2F22952695A6
:100B80002770220F220F6D2F6F70862F90E0A0E04C
:100B9000B0E0022E04C0880F991FAA1FBB1F0A9441
:100BA000D2F7D4FF10C04FE050E060E070E004C026
:100BB000440F551F661F771F2A95D2F74095509511
:100BC0006095709503C040E050E0BA01C695C695A7
:100BD000C3708A019B01082B192B2A2B3B2BC901BF
:100BE000B801C23049F058F4C13019F00E943708FA
:100BF00081C00E9425087EC00E9449087BC00E94D7
:100C0000980778C0CF70112339F08C2F0E94BE074F
:100C10008D2F0E9463046EC08D2F0E946A048C2F5A
:100C20000E94DF0767C0D23F21F128F4D03F41F096
:100C3000D13FC1F043C0D33F19F1D43F79F03EC05A
:100C4000112341F0053008F051C08C2F8F710E94A4
:100C500004084CC0063008F049C0F7CF80919A02D2
:100C600082FF18C0112339F08C2F8F710E94BE07AC
:100C70003DC01123C9F38C2F8F710E94DF0736C04E
:100C8000112329F08C2F8F710E94A9072FC00E9479
:100C9000A4072CC0112349F0CF718C2F0E94BE07EE
:100CA00063E08C2F0E94E00C21C081E00E94FB0CCD
:100CB0000230E0F082E00E94FB0C18C0112331F0FA
:100CC000002391F28D2F0E94310310C0002399F26E
:100CD000D93349F41FEF27EE33E011502040304064
:100CE000E1F700C000008D2F0E94DB0388EF8C0D20
:100CF000843020F40E94A0160E94C602DD20C9F0B4
:100D00000E944E0C80FD15C0F70112820E94480C13
:100D10000E94BE07C7010E94BA060E94480CDF91DC
:100D2000CF911F910F91FF90EF90DF90CF900C9497
:100D3000DF07DF91CF911F910F91FF90EF90DF9030
:100D4000CF9008950F931F93CF93DF93EC016881A9
:100D500079818A810E9400098C010E945B080E94AF
:100D60004C07B801CE010E947104DF91CF911F9111
:100D70000F910895CF93DF93EC01988189812B81A6
:100D80003C81232B31F08F3F31F481E09F3F19F4F8
:100D900003C081E001C080E080FD1DC0CE010E9443
:100DA0006402811110C00E94520C8823A1F08A8134
:100DB000882389F080919A0282FD0DC082E0DF9144
:100DC000CF910C94FB0CCE010E94A206CE01DF91C4
:100DD000CF910C944502DF91CF91089580E090E08F
:100DE0000E94D41680E090E00E94EA160E94790CDE
:100DF0000E949B0C0E9450140C94AF13809102012E
:100E0000909103010E94AC170C94EE060E94690CAD
:100E10000C94FE0692959F70963079F010F49250E3
:100E200001C09A50923068F4803F69F018F4883E0F
:100E300040F409C0843F29F406C0883E20F0813F79
:100E400011F080E0089581E00895FC018081918196
:100E50000E94F5080E940A070895CF93DF9300D0FF
:100E600000D01F92CDB7DEB70F900F900F900F906C
:100E70000F90DF91CF910895CF93DF9300D000D0F2
:100E800000D0CDB7DEB726960FB6F894DEBF0FBE02
:100E9000CDBFDF91CF910895089508950C944D072B
:100EA0000C944E070E9450076093CA017093CB01C7
:100EB0008093CC019093CD010C94EE060C945207D4
:100EC0000F931F930091CA011091CB012091CC0187
:100ED0003091CD01602B712B822B932B1F910F91A1
:100EE0000C9452070F931F930091CA011091CB01EC
:100EF0002091CC013091CD01602371238223932373
:100F00001F910F910C9452070F931F930091CA01E8
:100F10001091CB012091CC013091CD016027712738
:100F2000822793271F910F910C9452070C944D0721
:100F30000E9496076093C6017093C7018093C80111
:100F40009093C9010C94EE0660E070E0CB010C9424
:100F500098070F931F9341E050E060E070E08A0132
:100F60009B0104C0000F111F221F331F8A95D2F767
:100F7000C901B8011F910F910C9498070F931F930B
:100F800041E050E060E070E004C0440F551F661F70
:100F9000771F8A95D2F78091C6019091C701A091E1
:100FA000C801B091C9018A019B01082B192B2A2B7A
:100FB0003B2BC901B8011F910F910C9498070F9317
:100FC0001F9341E050E060E070E004C0440F551F03
:100FD000661F771F8A95D2F740955095609570955A
:100FE0008091C6019091C701A091C801B091C9013B
:100FF0008A019B01082319232A233B23C901B80135
:101000001F910F910C9498070F931F9341E050E0AC
:1010100060E070E004C0440F551F661F771F8A957B
:10102000D2F78091C6019091C701A091C801B091FB
:10103000C9018A019B01082719272A273B27C901D3
:10104000B8011F910F910C9498070F931F93009173
:10105000C6011091C7012091C8013091C901602BD0
:10106000712B822B932B1F910F910C9498070F9348
:101070001F930091C6011091C7012091C8013091C2
:10108000C90160237123822393231F910F910C9434
:1010900098070F931F930091C6011091C7012091EB
:1010A000C8013091C90160277127822793271F91BA
:1010B0000F910C94980708952CE0929F800D1124B5
:1010C000E82FE695E695E695877051E001C0550F4B
:1010D0008A95EAF785E0E89FF0011124E855FE4F74
:1010E00020E030E070E04081CB01022E02C09695F6
:1010F00087950A94E2F78170819584278523842758
:1011000081932F5F3F4F2530310569F708952CE01B
:10111000929F800D1124682F669566956695982F8D
:10112000977085E0689FB001112440E050E080E0B6
:10113000FB01E40FF51FE855FE4F208130E0092E3A
:1011400002C0369527950A94E2F721703327042EC2
:1011500001C0220F0A94EAF7822B4F5F5F4F4530A0
:10116000510531F70895BF92CF92DF92EF92FF922F
:101170000F931F93CF93DF938C01C090C601D09043
:10118000C701E090C801F090C9018091CA01909117
:10119000CB01A091CC01B091CD01C82AD92AEA2A6D
:1011A000FB2ACFE1D0E0D701C6010C2E04C0B695D2
:1011B000A795979587950A94D2F780FD04C021974B
:1011C00090F7B12C07C0BC2EB8018C2F0E94FC0FE9
:1011D0000197A9F38B2DDF91CF911F910F91FF9074
:1011E000EF90DF90CF90BF900895CF93DF93EC0105
:1011F0000E94B308BE010E94FC0FDF91CF910895B9
:101200001F93CF93DF93EB019091A701992321F0D6
:10121000CB010E94F50813C0882349F0CB010E943E
:10122000B308182F682FCE010E945C0804C0CB01C0
:101230000E948708182FBE01812F0E94FC0FDF91AA
:10124000CF911F9108951F93CF93DF93C091CE014B
:1012500016E08091CF01C81799F0D0E01C9FF001F3
:101260001D9FF00D1124E053FE4F4081518162819A
:101270007381848195810E943C072196C770E9CFD4
:10128000DF91CF911F91089540910002509101028A
:101290006091020270910302809104029091050214
:1012A0000C943C07EF92FF920F931F93CF93DF9321
:1012B0008091050282958F7009F065C080910202CD
:1012C000882309F460C08091CE01F090CF01109185
:1012D000000200910102609103027091040291E00A
:1012E0001F3F09F090E0C0910001D0910101292F2A
:1012F00096E0E92E8F1509F446C06115710521F0BD
:101300000F3F21F030E003C031E001C0322F90E008
:1013100030FD36C0E89EF001E99EF00D1124DF019A
:10132000A053BE4F11963C911197301329C03C91A8
:10133000311326C012963C911297311121C0139699
:101340004D915C911497461B570B4C175D07C0F4E9
:10135000809105028F70806180930502EB52FE4FF1
:1013600080818F708061808380E092E00E94BA0665
:10137000DF91CF911F910F91FF90EF900C94230973
:1013800001968770B7CFDF91CF911F910F91FF909A
:10139000EF9008959F92AF92BF92CF92DF92EF921B
:1013A000FF920F931F93CF93DF93CDB7DEB7619773
:1013B0000FB6F894DEBF0FBECDBF8C0185E0F801FB
:1013C000DE011D9601900D928A95E1F7D8011296E3
:1013D000EC9090910002E091010220910302309183
:1013E00004022115310531F0EF3F31F481E09F3FD8
:1013F00019F403C081E001C080E0B82FB1709B2ECA
:1014000080FD47C1D8014C9111965C9111971396BC
:10141000AD90BC90149780E0C82E82E0D82EF0905A
:101420000202B501621B730B209100013091010192
:10143000FF2009F4D9C0809105026217730708F0F4
:1014400095C0282F207F09F052C05E1313C04913A6
:1014500011C0FE2CE1100EC08F70806180930502D8
:101460000E944409C6010E94BA0680910502F80153
:1014700085834DC1AB2831F05F3F31F481E04F3FB0
:1014800019F403C081E001C080E080FD03C081E069
:101490008E2502C080E090E0F82FF170FF2E80FFD3
:1014A0001CC08091CE012091CF0136E0821709F453
:1014B0000BC190E0389FF001399FF00D1124E053EB
:1014C000FE4F6181561306C06081461303C06281DE
:1014D000E61203C001968770E9CFFE2CEE2009F4D6
:1014E00016C18091050281608093050254C05E138D
:1014F00006C0491304C0E11002C0F80199C0C80138
:101500000E942507882361F1EE2051F12091050208
:10151000822F82958F7090E0029774F08091000284
:101520009091010298878F831986BB86AA862C87A3
:10153000CE0107960E94BA0686E0F801A0E0B2E06C
:1015400001900D928A95E1F70E9452090E94440988
:101550000AC05E1711F1C8010E94250781112CC035
:10156000C8010E94BA06FF24F394D1C0282F207F1F
:1015700081F77A2DB98AA88A6E2D89890E942D0754
:1015800080E092E00E94BA0686E0D6011D928A951C
:10159000E9F70E944409F12CBAC04913DCCFE110ED
:1015A000DACFF8018583C8010E94BA0686E0D60129
:1015B0001D928A95E9F7ABC0EE2091F220910502C9
:1015C000822F82958F7090E002970CF4B5CF8091B6
:1015D0000002909101029A8389831B82BD82AC82B2
:1015E0002E83CE010196A6CF6217730708F044C080
:1015F000FE2CEE2009F4B4CF5E1330C049132EC088
:101600002091050220FD21C0822F82958F70482FE6
:1016100050E041155105C9F0F80125834F305105BF
:1016200041F08F5F982F9295907F822F8F70892B3A
:101630008583C8010E94BA0686E0F801A0E0B2E006
:1016400001900D928A95E1F73CC086E0F801A0E098
:10165000B2E001900D928A95E1F759C0C8010E944D
:101660002507811169CF8091050281608093050271
:10167000C8010E94BA064BC07A2DB98AA88A6E2D7D
:1016800089890E942D0786E0D6011D928A95E9F787
:1016900018C0EE2009F464CFC8010E942507F82E77
:1016A000882309F45DCF86E0F801A0E0B2E0019064
:1016B0000D928A95E1F780E092E00E942B030E9450
:1016C00052090E94440923C04D875E878D859E85FF
:1016D0000E94F508292F22952F70223028F49F7040
:1016E00039F0811105C00BC0243028F49F7049F4F3
:1016F000805E883020F0C8010E94BA069F2CF92C29
:1017000006C0D80115969C91907F91F7F8CF8F2D48
:1017100061960FB6F894DEBF0FBECDBFDF91CF91BB
:101720001F910F91FF90EF90DF90CF90BF90AF90FF
:101730009F9008951F93CF93DF93CDB7DEB72C977B
:101740000FB6F894DEBF0FBECDBF4F8358876987B1
:101750007A878B879C87CE0107960E94CA098823C7
:10176000D1F09F8188852A853B85232B31F08F3FDF
:1017700031F481E09F3F19F403C081E001C080E0B3
:1017800080FD47C04F81588569857A858B859C850A
:101790000E943C073EC086E0FE013796DE011196AE
:1017A00001900D928A95E1F7FF81E8856A857B8536
:1017B0006115710531F0EF3F31F481E0FF3F19F41D
:1017C00003C081E001C080E080FD23C02091CF01F3
:1017D00030E0C9010196877099274091CE0150E011
:1017E00084179507F1F1F983EA837D836C8396E092
:1017F000929FD001939FB00D1124A053BE4FFE01C4
:10180000319601900D929A95E1F78093CF010E9455
:10181000230916E08091CE019091CF01891771F1D3
:10182000189FC001112480539E4F0E94CA0988232B
:1018300029F1E091CE011E9FF0011124E053FE4FEB
:101840004081518162817381848195810E943C072E
:101850008091CE0190E00196877099278093CE0108
:10186000D9CF0E9406071092CF011092CE01E0E07E
:10187000F2E086E0DF011D928A95E9F72C960FB61B
:10188000F894DEBF0FBECDBFDF91CF911F910895B9
:1018900080912602859585958595089580912602EB
:1018A0008770089590912602977081E009F480E096
:1018B000089580914902089590914902892B80935F
:1018C00049020895809590914902892380934902A5
:1018D000089510924902089590914802892B8093AF
:1018E0004802089580959091480289238093480288
:1018F000089510924802089580912702089508954E
:101900000C947F0C0C94800C90919A0292FD08C06C
:1019100090912702981721F0809327020C94820C53
:10192000089580912702882329F01092270280E0F1
:101930000C94820C0895CF93DF93E0910201F09113
:101940000301809149028083E0910201F09103013B
:10195000908180914802892B80838091270288237F
:1019600081F0E0910201F09103019081892B808345
:1019700080910201909103010E94001781110E9441
:10198000910CC0910201D091030140E250E066E069
:1019900072E0CE010E949F1F892B69F080E2FE0158
:1019A000A6E0B2E001900D928A95E1F7CE01DF91B9
:1019B000CF910C94AC16DF91CF9108950C947F0CCD
:1019C00090919A0292FD10C098E0899F9001112495
:1019D000262B209326020E94BE0780912602859521
:1019E000859585950C94DE0C0C94BE07109226020A
:1019F00080E00C94DE0C2091260280958223809357
:101A00002602982F977099F430E0482F082E000C8A
:101A1000550B2417350759F090919A0292FD07C093
:101A20008595859585950E94DF070C94F60C0895A1
:101A300090919A0292FB222720F9281769F080FBE7
:101A400092F990939A028091990290919A020E9441
:101A5000660D82E00C94FB0C089580919A0282FB43
:101A6000882780F991E089270C94180D81E00C9467
:101A7000180D80E00C94180D6FEF7FEF80E090E080
:101A80000C94D81F80E090E00E94B41F21E0893EB2
:101A90009E4F09F020E0822F089582E090E00C94A0
:101AA000AC1F83E090E00C94AC1FCF9384E090E0F7
:101AB0000E94AC1FC82F82E290E00E94AC1F2C2F26
:101AC00030E0A901582BCA01CF910895CF93C92FB7
:101AD000682F84E090E00E94BA1F6C2F82E290E0B1
:101AE000CF910C94BA1FAB01BC018FE090E00C9435
:101AF000CC1FAB01BC0183E190E00C94CC1F60E0F3
:101B000070E0CB010C94790D60E070E0CB010E9495
:101B1000730D0C947F0D69EE7EEF80E090E00E94E3
:101B2000D81F60E082E090E00E94BA1F60E083E08E
:101B300090E00E94BA1F1092CA011092CB0110923D
:101B4000CC011092CD0160E084E090E00E94BA1FC9
:101B500060E082E290E00E94BA1F60E085E090E0E1
:101B60000E94BA1F60E086E090E00E94BA1F6FEF0B
:101B700087E090E00E94BA1F40E050E0BA0188E0A0
:101B800090E00E94CC1F60E08DE090E00E94BA1FC0
:101B900040E050E0BA0188E190E00E94CC1F60E094
:101BA00087E190E00E94BA1F40E050E0BA018CE16A
:101BB00090E00E94CC1F60E070E080E290E00E9424
:101BC000D81F40E050E0BA0188E190E00E94CC1FAD
:101BD0000C94840D0C948B0D682F8EE090E00C9487
:101BE000BA1F0E9466186093560270935702809342
:101BF000580290935902609352027093530280935B
:101C0000540290935502089585B7806885BF85B7C3
:101C1000806885BF089581E008950C940B0E0895A7
:101C20000C940F0E0C940F0E0C94120E0C940F0EBD
:101C30000C94160E0C940F0E0E94040E88ED90E189
:101C40000E9496160E941A0E0C94180E0E94100EF6
:101C50000C940F0E0E94F5100C94C5020E945118AE
:101C60000E94DA110E942A0E0C94140E5F926F9259
:101C70007F928F929F92AF92BF92CF92DF92EF921C
:101C8000FF920F931F93CF93DF93CDB7DEB72A97C1
:101C90000FB6F894DEBF0FBECDBF0E94EF11C82E65
:101CA00081110E94F10D3AE4832E32E0932E00E080
:101CB00010E0502E802F0E9419115C01F4016190F8
:101CC00071904F016826792661147104B1F40F5F99
:101CD0001F4F0430110569F78FEF89838A831B82B8
:101CE0000E945A188160782F9D838C8349815A8184
:101CF0006B818D810E94E1023AC080915A0281FD80
:101D00000E942211D12CEE24E394F12CC3018E21E8
:101D10009F21892B29F10E940D0E8823A9F0DE82D4
:101D20005F82AE20BF2081E0AB2809F480E0888785
:101D30000E945A188160782F9A8789874E815F8127
:101D400068858A850E94E102000F111FF801E65B99
:101D5000FD4F80819181E826F926F182E08207C05B
:101D6000D394EE0CFF1CFCE0DF12D0CFB0CF81E0AB
:101D7000C11001C080E02A960FB6F894DEBF0FBEF6
:101D8000CDBFDF91CF911F910F91FF90EF90DF902A
:101D9000CF90BF90AF909F908F907F906F905F900B
:101DA00008950E94360E0E94CD130C94D602CF9354
:101DB000DF930E940110EC01811521E5920708F0E4
:101DC00045C0811530E5930708F094C0883E910521
:101DD00028F5803E910508F0F8C0883A910570F426
:101DE000853A910508F07CC08130910509F475C0F1
:101DF00008F4E8C0049708F0E8C0E4C08F3B910500
:101E000008F0E0C0C85AD0E0CC0FDD1FCD59DE4F3E
:101E10000990D881C02DCE019464D8C0811540E2CC
:101E2000940758F4811551E0950708F0CEC08D3E17
:101E3000910508F4C7C09065C9C0C11580E4D807F2
:101E400008F4C0C0DF70CE01906AC0C0811525E5DE
:101E50009207A8F4811534E5930708F095C0811521
:101E600043E5940708F07BC0811552E5950708F01B
:101E700061C0D82FCC27CE01816F906AA7C0C11551
:101E800089E5D807A0F4C11528E5D20708F082C07B
:101E9000C11536E5D30708F095C08C2F0E94951028
:101EA0008F7190E0D82FCC27CE0190628FC0C115E2
:101EB0004AE5D40708F474C0CE01905681159042CB
:101EC00008F080C08D2F8F710E949510DD27D062A1
:101ED0008F71AE01582BCA0179C081E090E076C0C5
:101EE000C55AD0E0CF56DE4F8881C82FD0E0CE0152
:101EF00090646CC074E0969587957A95E1F7282FE9
:101F000023703C2F337081E090E002C0880F991F4E
:101F10003A95E2F79C68AC01522B9A019C2F9F7076
:101F20009695969550E2959FE0011124C9018C2B5E
:101F30009D2B4CC08370992721E030E002C0220F16
:101F4000331F8A95E2F79C2F9695969580E2989F8D
:101F5000E0011124C22BD32BCE019C6837C08370C3
:101F6000992721E030E002C0220F331F8A95E2F763
:101F70009C2F9695969540E2949FE0011124C22BE8
:101F8000D32BCE019A6822C0D82FCC27CE01846FE4
:101F9000906A1CC0DC2FCC27CE01806F906A16C0DF
:101FA0008C2F8F700E94951094E0D695C7959A95C6
:101FB000E1F7CF70D0E0DC2FCC27D0699E01282B31
:101FC000C90104C080E090E001C0CE01DF91CF9153
:101FD000089520E3829FC0011124FC012CE0729F30
:101FE000E00DF11D1124E60FF11DEE0FFF1FE85269
:101FF000FF4F8591949108950E94E90F0E94D70E9A
:1020000008958238910569F1B0F48133910509F49E
:102010006DC048F48932910509F463C08A32910594
:1020200009F469C008958533910509F455C08933D1
:102030009105B9F00895833E910569F138F4803E29
:102040009105B1F0823E910509F10895863E910512
:10205000A9F1873E9105B9F1843E910509F064C06C
:1020600023C02091990220FD4FC021FD4DC008954D
:102070008091990280FD44C080919A0280FF44C003
:102080008091990284FD42C083EE4DC080919902F7
:1020900082FF38C0F5CF8091990282FD33C08091D4
:1020A0009A0280FD31C0ECCF80919A0281FF32C04C
:1020B0008091990284FD2AC087EE35C080919902F3
:1020C00083FF26C0F5CF8091990283FD21C08091C6
:1020D0009A0281FD1FC0ECCF8091990285FD1CC042
:1020E0001DC08091990285FD19C016C0809199028A
:1020F00086FD16C017C08091990286FD13C010C0DE
:1021000089E311C082EE0FC080EE0DC080E00BC0ED
:1021100086EE09C084EE07C089E205C085E303C0EE
:102120008AE201C081E390E008959091990292FFC4
:102130000DC0282F2871283019F4877F846006C0CD
:10214000282F2471243011F48B7F886093FF0DC0F9
:10215000282F2871283119F4877E846106C0282F22
:102160002471243111F48B7E886120919A0220FF22
:102170000DC0382F3871383019F4877F816006C060
:10218000382F3171313011F48E7F886021FF0DC0FE
:10219000282F2871283119F4877E816106C0282FE5
:1021A0002171213111F48E7E886194FD877E08951E
:1021B00080E008950C943C0D0E94EF112FEF86E70C
:1021C00091E0215080409040E1F700C000000E9463
:1021D000EF1180E00E94191180FF04C00E94DA1004
:1021E0000C94A71808950C94DC100E94420D8111E4
:1021F00002C00E94EA0D0E944D0D80935A020E9477
:10220000550D90939A02809399020E94F3100E94B8
:10221000510D682F70E080E090E00E945E076091B1
:10222000C6017091C7018091C8019091C9010C94B9
:102230009607E82FF0E0EE0FFF1FED55FD4F808170
:1022400091810895089580EA8A95F1F7089500C074
:1022500008950C94231108950C942B110C942C11B7
:102260000C942B110C943011F894E82FE295EF7038
:10227000F0E031A1282F2F7081E090E001C0880F9D
:102280002A95EAF7982F9095932391A392A1892BF1
:1022900082A3789408950F931F93CF93DF93C0EA9E
:1022A000D1E089918F3F11F00E94341181E0C43A4E
:1022B000D807B9F7C4E9D1E000EA11E089918F3F6E
:1022C00011F00E9434110C171D07C1F7DF91CF9157
:1022D0001F910F910895BF92CF92DF92EF92FF92DC
:1022E0000F931F93CF93DF938C01C62FD0E0CE01C5
:1022F00080569E4F6C01FC0190819F3F09F450C0B5
:10230000B62EF894E92FE295EF70F0E081A19F706E
:1023100021E030E001C0220F9A95EAF7822B81A3D9
:1023200082A12095282322A378940E942711E4E912
:10233000F1E040EA51E021E030E0E12CF12C619144
:102340006F3F89F0A62FA295AF70B0E090968C9168
:1023500090E06F7002C0959587956A95E2F780FDD1
:1023600002C0C90102C080E090E0E82AF92A220FE9
:10237000331F4E175F0719F7F60180818F3F11F069
:102380000E94341161E0E114F10409F460E08B2D46
:102390000E942911CC0FDD1FC00FD11FF982E882E6
:1023A000DF91CF911F910F91FF90EF90DF90CF9031
:1023B000BF9008950E944B1188E0E3EAF2E0DF014C
:1023C000982F1D929A95E9F7EBE9F2E0DF011D9253
:1023D0008A95E9F784E00E943A120C945002FF9229
:1023E0000F931F93CF93DF93CDB7DEB728970FB628
:1023F000F894DEBF0FBECDBF8E010F5F1F4F88E088
:10240000F80111928A95E9F7F12C6F2DC8010E940D
:102410006B11F394F4E0FF12F8CF48E050E0B801FC
:102420008BE992E00E949F1FFF24F394009709F428
:10243000F12C892B41F088E0F801ABE9B2E0019082
:102440000D928A95E1F72F2D44E063EA72E08BE963
:1024500092E00E943B120E9452028F2D28960FB6E6
:10246000F894DEBF0FBECDBFDF91CF911F910F91CA
:10247000FF9008950895FF920F931F93CF93DF93DA
:10248000F82E092F162FD72FC42F222349F081E0D1
:1024900080935D020E945A1890935C0280935B02C5
:1024A00080915D028823D9F080915B0290915C025B
:1024B0000E947218059798F0EF2DF02FA12FBD2FD5
:1024C00080E090E04C2F50E08417950734F4219180
:1024D00031912D933D930196F7CF10925D02DF91DC
:1024E000CF911F910F91FF9008950E945F1A0E9453
:1024F0002E0E0C946B1A0E946F1A0E94D10E0C942F
:10250000891A0E94F8170E94461A0E941C0E0E9407
:1025100075120E947B120E94260EFBCF809124012F
:1025200090E0880F991FFC01E45EFE4F2081FC01C2
:10253000E45FFE4F808190916402191614F4209399
:1025400064029091640297FF04C0922F919590933A
:10255000640290916502191614F42093650290911B
:10256000650297FF03C02195209365029091670251
:10257000191614F4809367029091670297FF04C0C4
:10258000982F91959093670290916602191614F412
:10259000809366029091660297FF03C081958093B5
:1025A0006602309164023323E1F020916502222318
:1025B000C1F045EB3403C0011124992319F0909325
:1025C000640203C081E08093640235EB2303C00101
:1025D0001124992319F09093650203C081E0809340
:1025E000650240916702442379F0309166023323FB
:1025F00059F025EB4203A0011124509367023203E6
:10260000C001112490936602089540912401242F63
:1026100030E0220F331FF901E45EFE4F90818D3EC2
:1026200011F4919502C08E3E19F4909365023EC05C
:102630008F3E11F4919502C0803F19F4909364028B
:1026400035C0F901E45FFE4F9081893F19F08A3F60
:1026500021F491959093660229C08B3F11F49195D6
:1026600002C08C3F19F49093670220C09FE0980F3E
:10267000983078F421E030E0B90102C0660F771F8E
:102680009A95E2F7CB0190916302892B80936302C4
:102690000DC08D3F11F481E007C08E3F11F482E040
:1026A00003C08F3F19F483E08093240180912401BB
:1026B00048130C948E1208958D3E39F49091650262
:1026C00097FF39C01092650208958E3E29F49091CB
:1026D00065021916BCF32FC08F3E39F49091640245
:1026E00097FF29C0109264020895803F29F49091C9
:1026F00064021916BCF31FC0893F39F49091660239
:102700001916CCF41092660208958A3F29F490912C
:10271000660297FF10C0F6CF8B3F39F490916702A5
:1027200097FF09C01092670208958C3F21F49091A1
:1027300067021916BCF39FE0980F983078F421E0F7
:1027400030E0A90102C0440F551F9A95E2F7CA0173
:1027500080959091630289238093630208950E947B
:102760005A1820916402211104C02091650222238D
:1027700021F0909361028093600220916602211102
:1027800004C020916702222321F090935F0280937E
:102790005E0282E692E00C94C616EF92FF920F93CF
:1027A0001F93CF93DF9300D000D000D0CDB7DEB71A
:1027B00086E0E2E6F2E0DE01119601900D928A9544
:1027C000E1F7E0906402F0906502009166021091DA
:1027D00067021092640210926502109266021092D3
:1027E0006702E11002C0FF20B1F080916002909179
:1027F00061020E947218E0912401F0E0EE0FFF1FC9
:10280000EC5EFE4F208131812817390720F4E092D9
:102810006402F0926502111102C00023B1F08091B0
:102820005E0290915F020E947218E0912401F0E034
:10283000EE0FFF1FEC5FFE4F208131812817390713
:1028400020F4009366021093670280916402811164
:102850000BC080916502811107C0809166028111D1
:1028600003C08091670281110E94AF13EB82FC824A
:102870000D831E8386E0FE013196A2E6B2E0019050
:102880000D928A95E1F726960FB6F894DEBF0FBE3B
:10289000CDBFDF91CF911F910F91FF90EF900895E1
:1028A000E2E6F2E086E0DF011D928A95E9F70895FD
:1028B000CF93DF93EC01FB018281882309F43CC1B3
:1028C000C430FDE5DF0760F4CB3F9CE5D90788F411
:1028D0009E0122503C452431310508F02EC109C02B
:1028E000C236EDE5DE0729F0C63AFDE5DF0709F05F
:1028F00024C10E94550D90939A0280939902C13190
:102900008CE5D80709F4C6C008F042C0C930ECE530
:10291000DE0709F49BC000F5C5308CE5D80709F443
:1029200085C078F4C330ECE5DE0709F478C008F020
:102930007AC0C230DC4509F0F5C08091990281600F
:10294000EFC0C7309CE5D90709F478C008F07AC019
:10295000809199028061E4C0CD30FCE5DF0709F485
:1029600087C058F4CB309CE5D90709F479C008F04A
:102970007BC08091990288606FC0CF30FCE5DF0793
:1029800009F480C008F082C080919902877FC8C096
:10299000CE3F9CE5D90709F471C000F5C531FCE5CF
:1029A000DF0709F485C068F4C3319CE5D90709F451
:1029B00075C008F095C00E940607809199028F7734
:1029C000AFC0CC3FFCE5DF07A9F108F054C0CB3F16
:1029D000DC4509F0A7C080919A0240C0C230EDE505
:1029E000DE0709F489C058F4C1158DE5D80709F44C
:1029F0005AC008F069C080919A0282602FC0C23626
:102A0000EDE5DE0709F47CC0C63AFDE5DF0709F411
:102A100081C0C330DD4509F085C080E06EC0809183
:102A2000990282607DC08091990216C080919902BE
:102A3000886076C080919A0282604FC0809199022E
:102A400080626EC08091990280646AC00E9406070D
:102A500080919902806864C0846062C081603DC0DA
:102A6000809199028E7F5CC0809199028D7F58C0C1
:102A70008091990216C080919A0218C080919A02A2
:102A80008D7F2BC0809199028F7E4AC080919902E0
:102A90008F7D46C0809199028F7B42C080919902C0
:102AA000877F8B7F3DC080919A028D7F8E7F15C07E
:102AB0008091990282FB222720F991E0922790FBD6
:102AC00082F990FB83F92CC080919A02982F9095FF
:102AD00091708E7F892B90FB81F980939A0222C09E
:102AE0000E9406078091990287FB222720F991E036
:102AF000922790FB87F914C081E00E94EC0D12C070
:102B00008091990284FB222720F991E0922790FB83
:102B100084F906C080919902982F909590FB80F9D6
:102B2000809399028091990290919A020E94660D79
:102B30000E94060780E001C081E0DF91CF910895F7
:102B4000CF93DF9386319C4541F5EB010E94590CF0
:102B5000982F8A812091020130910301882379F016
:102B60009A7A81E009F480E080936802911102C0B2
:102B700069E201C065E3C9010E9496170AC080910D
:102B80006802811102C069E201C065E3C9010E94C7
:102B9000A1170E949B0C80E001C081E0DF91CF91E2
:102BA00008950F931F93CF93DF93C42FD22FFC016F
:102BB00082818823C9F040936B020E945A18909337
:102BC0006A028093690280E28C0F883008F057C057
:102BD000C77081E001C0880FCA95EAF7DF91CF91F5
:102BE0001F910F910C94630480916B02481330C0C5
:102BF0008091690290916A020E947218883C910546
:102C000038F510E21D0FCD17B9F080E28C0F883037
:102C100040F4C77081E001C0880FCA95EAF70E94AE
:102C20006A04183028F581E09D2F977001C0880F45
:102C30009A95EAF70E946304802F0E945A04183084
:102C4000F0F4D77081E001C0880FDA95EAF70AC086
:102C500080E28C0F883098F4C77081E001C0880F43
:102C6000CA95EAF7DF91CF911F910F910C946A04F6
:102C7000802FDF91CF911F910F910C945A04DF9117
:102C8000CF911F910F9108950F939C01CB01243F89
:102C90004CE5340731F188F4293DFCE53F07D9F0D4
:102CA0002A3D4CE5340779F1283D3C45A9F506E27B
:102CB00021EE41EE68ED7CE52BC0263FFCE53F07A9
:102CC000E1F0A8F0273F3C4539F507E225EE46EE56
:102CD00067EF7CE51DC007E225EE45EE69ED7CE57A
:102CE00017C006E221EE40EE64EF7CE511C007E27A
:102CF00025EE44EE65EF7CE50BC006E221EE42EEE8
:102D000066EF7CE505C008E221E045EE6AED7CE572
:102D10000E94D11580E008C0FC018281882319F04F
:102D200010926B0201C081E00F9108959093A5016C
:102D30008093A40108959093710280937002089586
:102D4000E0917002F0917102309721F00190F081D2
:102D5000E02D099480E00895E0917002F0917102F5
:102D6000309799F020913101222359F02091990256
:102D700027FF07C0DC012C9111962C93119726E0B8
:102D80002C930280F381E02D09940895E091700264
:102D9000F0917102309739F022E0DC012C9304802D
:102DA000F581E02D0994089520916E0230916F0213
:102DB0002817390771F090936F0280936E02E091AB
:102DC0007002F0917102309721F00680F781E02DBA
:102DD0000994089520916C0230916D0228173907EB
:102DE00071F090936D0280936C02E0917002F0910B
:102DF0007102309721F00084F185E02D0994089547
:102E0000FC01329680913101882331F08091990242
:102E100087FF02C09EE101C096E080E0915028F05B
:102E200021912223D9F38F5FF9CF0895662351F1C1
:102E3000209131012223E9F02091990227FF19C046
:102E4000462F4695469546954E31E0F4677021E051
:102E500030E002C0220F331F6A95E2F7FC01E40F55
:102E6000F11D828190E02823392381E0232B69F42E
:102E700009C0FC01329608962191621729F0E817E3
:102E8000F907D1F780E0089581E008959C01FC01E5
:102E900032969FEF80E04191461789F09F3F19F4E9
:102EA000411101C0982F8F5F8630A9F79F3F39F0FD
:102EB000F901E90FF11D97FDFA95628308950895D0
:102EC0009C012A5F3F4FFC014281461301C01282E0
:102ED000019682179307B9F70895262F2695269510
:102EE00026952E3168F4FC01E20FF11D677021E098
:102EF00030E001C0220F6A95EAF78281282B2283F5
:102F00000895262F2695269526952E3170F4FC01DE
:102F1000E20FF11D677021E030E001C0220F6A95D9
:102F2000EAF7209582812823228308952091310198
:102F3000222329F02091990227FD0C946D170C94FF
:102F4000461720913101222329F02091990227FD73
:102F50000C9481170C94601720913101FC0132967A
:102F6000222331F08091990287FF02C08EE101C0D7
:102F700086E0DF011D928A95E9F7089508950C9483
:102F8000BE1783E0809372020C94BF17811102C0B8
:102F900081E001C082E0809372020C94BF170C9410
:102FA000C61781E0809372020C94BF170C94D1175E
:102FB00008950C94D8170C94D9170C94D8170C9426
:102FC000D8170C94D817CF930E94DF170E94EF11E7
:102FD0000E94DD17C0E08C2F0E941911892B29F463
:102FE000CF5FC430C1F780E001C081E0CF91089588
:102FF00008951F920F920FB60F9211248F939F93F3
:10300000AF93BF9380917302811113C08091AB0283
:103010009091AC02A091AD02B091AE024196A11D7B
:10302000B11D8093AB029093AC02A093AD02B0931C
:10303000AE02BF91AF919F918F910F900FBE0F90F5
:103040001F9018958091B302843031F10E94B6022E
:103050001092730220E488E190E00FB6F894A895EE
:10306000809360000FBE2093600083B7817F8460EF
:1030700083BF83B7816083BF7894889583B78E7F41
:1030800083BF0FB6F894A895809160008861809303
:103090006000109260000FBE08950E9406070C9415
:1030A000BA0282E084BD93E095BD9AEF97BD80930C
:1030B0006E0008952FB7F8948091AB029091AC0206
:1030C000A091AD02B091AE022FBF08952FB7F89432
:1030D0006091AB027091AC028091AD029091AE0212
:1030E0002FBF08959C014FB7F8948091AB02909147
:1030F000AC02A091AD02B091AE024FBF821B930B08
:10310000089578941F920F920FB60F9211248F9307
:103110009F93AF93BF938091AB029091AC02A0912B
:10312000AD02B091AE020196A11DB11D8093AB021C
:103130009093AC02A093AD02B093AE02BF91AF9159
:103140009F918F910F900FBE0F901F90189587E75A
:1031500097E790930108809300089AE088E10FB602
:10316000F894A895809360000FBE90936000FFCF05
:10317000809197020895089522E02093E9002FEFAF
:103180003091E800215035FD06C035ED3A95F1F754
:1031900000002111F5CF2091E80025FF0BC040E091
:1031A00050E066E070E00E94FB1A8091E8008E77A4
:1031B0008093E8000895CF93DF932091310122237B
:1031C00039F02091990227FF03C060E222E002C09B
:1031D00068E021E02093E9002FEF3091E8002150D2
:1031E00035FD06C035ED3A95F1F700002111F5CF18
:1031F0002091E80025FF1DC0EC0180913101811173
:1032000005C040E050E068E070E003C070E040E0DE
:1032100050E0CE010E94FB1A8091E8008E778093E7
:10322000E80080E2FE01A7E7B2E001900D928A95E6
:10323000E1F7DF91CF910895809374027093760245
:10324000609375028091B302843001F582E080932F
:10325000E9008FEF9091E800815095FD06C095ED53
:103260009A95F1F700008111F5CF8091E80085FF74
:103270000DC040E050E063E070E084E792E00E941F
:10328000FB1A8091E8008E778093E8000895BC01D6
:1032900084E00C941C19BC0183E00C941C198091EF
:1032A000B202811109C00E948C1C0E94E91C80910D
:1032B000E20084608093E20008951092B2020895C3
:1032C0000C94D6176091AF0281E0611101C080E0DB
:1032D0000C94C1179091B30281E0943009F080E022
:1032E0006091AF020C94C61742E061EC81E00E944D
:1032F000051C42E261EC82E00E94051C9091B30241
:1033000081E0943009F080E06091AF020C94CF1717
:103310008091B502833009F461C030F4813071F0DE
:10332000823009F49AC008958A3009F486C08B303F
:1033300009F46CC0893009F0A8C020C08091B402A3
:10334000813A09F0A2C08091E800877F8093E8006D
:103350008091B8029091B902892B21F460E287E74D
:1033600092E003C060E080E090E070E00E94461BC5
:103370008091E8008B778093E80008958091B402F3
:10338000813209F082C08091B8029091B90202970F
:1033900008F07BC08091E800877F8093E8008091EF
:1033A000E80082FD05C08091B3028111F8CF6DC0A5
:1033B0002091F3008091F20090E0922B029731F47B
:1033C0008091F100813011F0863021F48091F1007C
:1033D000809397028091E8008B7753C08091B4026C
:1033E000813A09F052C08091B8029091B902892BBC
:1033F00009F04BC08091E800877F8093E8008091BE
:10340000E80080FFFCCF8091310136C08091B4028A
:103410008132D9F58091B8029091B902892BA9F532
:103420008091E800877F8093E8000E943A1C809199
:10343000B602809331010C9406078091B402813268
:1034400021F58091E800877F8093E8000E943A1C74
:103450008091B7028093980208958091B402813AD6
:10346000A1F48091E800877F8093E8008091E800D4
:1034700080FFFCCF809198028093F1008091E8005A
:103480008E778093E8000C943A1C089584B7877F68
:1034900084BF0FB6F894A8958091600088618093EE
:1034A0006000109260000FBE90E080E80FB6F894C4
:1034B00080936100909361000FBE0C94D1170E941D
:1034C0008C1C0E94E91CE2EEF0E080818460808325
:1034D00078940C947E1F85E291E00C949B16809169
:1034E000B3028530A9F48091B302853079F40E944B
:1034F00022188091B1028823B1F30E94E317882338
:1035000091F30E94E51A0E940607EDCF0C944D1826
:10351000089508950C948C1A292F332723303105F0
:10352000C9F060F42130310581F02230310509F015
:1035300044C08BE390E02AE732E043C021323105FA
:10354000E1F02232310549F138C082E190E025EB0B
:1035500032E037C099278130910549F028F0029771
:1035600061F5E8E5F2E005C0E6E7F2E002C0EAE670
:10357000F2E0849190E09F0124C06115710541F053
:1035800061307105D1F489E090E025EA32E019C09C
:1035900089E090E02CE832E014C06115710541F03B
:1035A0006130710551F486EB90E027EC32E009C000
:1035B00080E490E02DE733E004C080E090E020E07C
:1035C00030E0FA0131832083089580E189BD82E1F2
:1035D00089BD09B400FEFDCF8091D8008F7D809316
:1035E000D8008091E00082608093E0008091E0004C
:1035F00081FDFCCF0895CF92DF92EF92FF920F935F
:103600001F93CF93DF93EC018B017A010E94591C29
:10361000811133C0E114F10439F0F7018081918107
:10362000081B190BC80FD91FC12CD12C011511056E
:1036300019F18091E80085FD16C08091E8008E7731
:103640008093E800E114F10449F0F7018081918151
:10365000C80ED91ED182C08285E00FC00E94591CBD
:10366000882321F30AC089918093F1000150110948
:10367000FFEFCF1ADF0ADACF80E0DF91CF911F9101
:103680000F91FF90EF90DF90CF9008952091BA02B4
:103690003091BB022617370748F06115710539F4E0
:1036A0002091E8002E772093E80001C0B901FC01C9
:1036B00020E06115710579F18091B3028823F1F161
:1036C0008530F1F18091E80083FD3CC08091E800F5
:1036D00082FD2EC08091E80080FFEBCF2091F300A7
:1036E0008091F20090E0922B6115710551F08830C5
:1036F000910538F421912093F100615071090196F0
:10370000F3CF21E0089709F020E08091E8008E7760
:103710008093E800CECF2111CFCF0AC08091B302B1
:10372000882361F0853061F08091E80083FD0AC054
:103730008091E80082FFF2CF80E0089582E0089552
:1037400083E0089581E008952091BA023091BB0290
:103750002617370748F06115710539F42091E80004
:103760002E772093E80001C0B901FC0120E061152B
:10377000710591F18091B302882309F440C085302E
:1037800009F43FC08091E80083FD3DC08091E800CE
:1037900082FD2FC08091E80080FFE9CF2091F300E7
:1037A0008091F20090E0922B6115710559F08830FC
:1037B000910540F424912093F100319661507109F4
:1037C0000196F2CF21E0089709F020E08091E8000F
:1037D0008E778093E800CBCF2111CCCF0AC08091A7
:1037E000B302882361F0853061F08091E80083FDA9
:1037F0000AC08091E80082FFF2CF80E0089582E065
:10380000089583E0089581E00895982F973068F532
:103810009093E900981739F07091EC002091ED0039
:103820005091F00003C0242F762F50E021FD02C0FC
:103830009F5FECCF3091EB003E7F3093EB003091F7
:10384000ED003D7F3093ED003091EB00316030931F
:10385000EB007093EC002093ED005093F00020916A
:10386000EE0027FDE5CF80E008958F708093E9009A
:1038700081E008958091B40287FF11C08091E80033
:1038800082FD05C08091B3028111F8CF11C08091F3
:10389000E8008B770BC08091B302882349F08091B8
:1038A000E80080FFF8CF8091E8008E778093E800F1
:1038B00008952091E4003091E50095E64091EC00F8
:1038C000842F817040FF23C08091E80080FD1DC0DF
:1038D0008091B302882399F0853099F08091EB00B4
:1038E00085FD11C04091E4005091E5002417350793
:1038F00029F3915011F09A01E1CF84E0089582E01C
:10390000089583E0089581E0089580E0089540914E
:10391000E80042FFDDCF08950E94FA1C0E94021DBC
:10392000E0EEF0E0808181608083E8EDF0E080816E
:103930008F77808319BCA7EDB0E08C918E7F8C933C
:1039400080818F7E80831092B20208950F931F931F
:10395000CF93DF930E94FA1C0E94021DC8EDD0E0B5
:1039600088818F77888388818068888388818F7D2C
:10397000888319BC1092B3021092AF021092B10268
:103980001092B00200EE10E0F80180818B7F8083FE
:1039900088818160888342E060E080E00E94051CAD
:1039A000E1EEF0E080818E7F8083E2EEF0E08081C6
:1039B00081608083808188608083F80180818E7F30
:1039C0008083888180618883DF91CF911F910F91DF
:1039D0000895E8EDF0E080818F7E8083E7EDF0E0F0
:1039E00080818160808384E082BF81E08093B20225
:1039F0000C94A61CE8EDF0E080818E7F808310920D
:103A0000E20008951092DA001092E10008951F92EA
:103A10000F920FB60F9211242F933F934F935F9302
:103A20006F937F938F939F93AF93BF93EF93FF9386
:103A30008091E10082FF0BC08091E20082FF07C00D
:103A40008091E1008B7F8093E1000E947D1F809137
:103A5000DA0080FF1FC08091D80080FF1BC08091DA
:103A6000DA008E7F8093DA008091D90080FF0DC04C
:103A700080E189BD82E189BD09B400FEFDCF81E00E
:103A80008093B3020E944F1905C019BC1092B30273
:103A90000E945D198091E10080FF19C08091E200D1
:103AA00080FF15C08091E2008E7F8093E2008091BC
:103AB000E20080618093E2008091D8008062809370
:103AC000D80019BC85E08093B3020E9462198091EE
:103AD000E10084FF30C08091E20084FF2CC080E1CF
:103AE00089BD82E189BD09B400FEFDCF8091D80077
:103AF0008F7D8093D8008091E1008F7E8093E100DC
:103B00008091E2008F7E8093E2008091E2008160EC
:103B10008093E2008091AF02882311F084E007C017
:103B20008091E30087FD02C081E001C083E08093C3
:103B3000B3020E946A198091E10083FF29C080913D
:103B4000E20083FF25C08091E100877F8093E10040
:103B500082E08093B3021092AF028091E1008E7FE9
:103B60008093E1008091E2008E7F8093E20080915B
:103B7000E20080618093E20042E060E080E00E9429
:103B8000051C8091F00088608093F0000E9460190D
:103B9000FF91EF91BF91AF919F918F917F916F9125
:103BA0005F914F913F912F910F900FBE0F901F90FB
:103BB00018951F920F920FB60F9211242F933F93D7
:103BC0004F935F936F937F938F939F93AF93BF9325
:103BD000CF93DF93EF93FF93C091E900CF70809173
:103BE000EC00D82FD17080FDD0E81092E9008091D0
:103BF000F000877F8093F00078940E941D1E109241
:103C0000E9008091F00088608093F000CD2BCF70A8
:103C1000C093E900FF91EF91DF91CF91BF91AF91F8
:103C20009F918F917F916F915F914F913F912F91D4
:103C30000F900FBE0F901F9018951F93CF93DF9397
:103C4000CDB7DEB7AA970FB6F894DEBF0FBECDBFD3
:103C5000E4EBF2E08091F100819322E0EC3BF2078B
:103C6000C9F70E9488198091E80083FF2EC18091D6
:103C7000B4029091B502492F50E04A30510508F046
:103C800024C1FA01EE59FF4F0C94991F803821F09E
:103C9000823809F01AC108C08091B0029091B10237
:103CA000992389F082600FC08091B8028F708730AD
:103CB00008F00BC18093E9008091EB0085FB882719
:103CC00080F91092E9009091E800977F9093E800C6
:103CD0008093F1001092F100D1C0282F2D7F09F0C0
:103CE000F4C0882319F0823061F0EFC08091B602F1
:103CF000813009F0EAC0933009F080E08093B1028E
:103D00002EC08091B60281112AC08091B8028F70B6
:103D10002FEF280F263008F0D8C08093E9002091BB
:103D2000EB0020FF1CC0933021F48091EB008062F7
:103D300014C09091EB0090619093EB0021E030E093
:103D4000A90102C0440F551F8A95E2F74093EA008B
:103D50001092EA008091EB0088608093EB00109253
:103D6000E9008091E800877F8093E8000E943A1C78
:103D7000ACC08111AAC01091B6021F778091E300F8
:103D80008078812B8093E3008091E800877F809387
:103D9000E8000E943A1C8091E80080FFFCCF8091EF
:103DA000E30080688093E300111102C082E001C04B
:103DB00083E08093B30289C08058823008F085C0C8
:103DC0008091B6029091B7028C3D53E0950779F54A
:103DD00083E08A838AE289834FB7F894DE011396E1
:103DE00020E03EE051E2E32FF0E050935700E491F1
:103DF00020FF03C0E295EF703F5FEF708E2F90E0E1
:103E0000EA3010F0C79601C0C0968D939D932F5F46
:103E1000243149F74FBF8091E800877F8093E80005
:103E20006AE270E0CE0101960E94461B16C06091C6
:103E3000B8027091B902AE014F5F5F4F0E948A1ABB
:103E4000BC01892B09F441C09091E800977F9093C1
:103E5000E80089819A810E94A41B8091E8008B77F9
:103E60008093E80032C0803881F58091E800877F38
:103E70008093E8008091AF028093F1008091E80088
:103E80008E7772CF811121C08091B6029091B702D6
:103E900099270297D4F48091E800877F8093E80007
:103EA0008091B6028093AF020E943A1C8091AF02CB
:103EB000811106C08091E30087FD02C081E001C04E
:103EC00084E08093B3020E9474198091E80083FF1C
:103ED0000AC08091E800877F8093E8008091EB0022
:103EE00080628093EB00AA960FB6F894DEBF0FBEF7
:103EF000CDBFDF91CF911F9108950895CF93809109
:103F0000B3028823A1F0C091E900CF709091EC003A
:103F1000892F817090FD80E8C82B1092E900809174
:103F2000E80083FD0E941D1ECF70C093E900CF9171
:103F30000895EE0FFF1F0590F491E02D0994FB0109
:103F4000DC0104C08D910190801921F44150504052
:103F5000C8F7881B990B0895F999FECF92BD81BDD2
:103F6000F89A992780B50895A8E1B0E042E050E0C2
:103F70000C94E01F262FF999FECF92BD81BDF89ACF
:103F8000019700B4021639F01FBA20BD0FB6F8949D
:103F9000FA9AF99A0FBE08950396272F0E94BB1F25
:103FA0000E94BA1F252F0E94BB1F242F0C94BB1FF9
:103FB0000196272F0E94BB1F0C94BA1FDC01CB0176
:103FC000FC01F999FECF06C0F2BDE1BDF89A319629
:103FD00000B40D9241505040B8F70895F894FFCFC7
:103FE000C8002802280068017800140001000100C0
:103FF000010001001000200010001000100001005E
:104000000400200002B818DB18BC184B194719BB74
:104010001801E200E900EA00B500B600B700CD00E3
:104020008301CC008A01920194012102230224021F
:104030002502260227022A02B300B4006F00700096
:10404000818283E200E900EA00B500B600B700CD46
:10405000008301CC008A01920194012102230224F1
:10406000022502260227022A02B300B4006F007064
:104070000081828397C6343536323331F7F6F5F452
:0440800093929194F2
:00000001FF
