:100000000C94C1010C9408020C9408020C94080290
:100010000C9408020C9408020C9408020C94080238
:100020000C9408020C9408020C946B1E0C943D1F57
:100030000C948C190C9408020C9408020C9408027D
:100040000C9408020C9408020C9408020C94080208
:100050000C9408020C94E5190C9408020C94080204
:100060000C9408020C9408020C9408020C940802E8
:100070000C9408020C9408020C9408020C940802D8
:100080000C9408020C9408020C9408020C940802C8
:100090000C9408020C9408020C9408020C940802B8
:1000A0000C9408020C9408020C940802AB04AB04F4
:1000B000D704D7043F055D05820682066805FD0565
:1000C0000E060E067206820682067B0626072607A5
:1000D000380738072F073807380738072607260755
:1000E0003407380738073407AA1FD11FC920D11F8A
:1000F000C9201D204020C9209720A62029001400D7
:100100001A000800150017001C0018000C0012004F
:1001100013002A002B0004001600070009000A0043
:100120000B000D000E000F0033003400E1001D0035
:100130001B000600190005001100100036003700F2
:10014000520028003900E000E200E30001512C00D9
:100150002C0002513800500051004F0035001E00A5
:100160001F0020002100220023002400250026007B
:100170002700010001000100010001000100010051
:100180002D002E002F00300033003400010001004C
:1001900001000100010001000100310036003700BC
:1001A00001000100010001000100010001002C001C
:1001B0002C000251380001000100010035021E022E
:1001C0001F0220022102220223022402250226020B
:1001D00027022A00010001000100010001000100C6
:1001E0002D022E022F0230023302340201000100E0
:1001F0000100010001000100010031023602370256
:100200000100010001000100010001000151010095
:10021000010001003802010001000100100370001C
:1002200065006E006B0065007300750000000A0336
:10023000500065006E006B00000004030904090211
:100240003B00020100A0FA090400000103010100C3
:100250000921110100012240000705810308000A5D
:10026000090401000103000000092111010001221D
:10027000B6000705820320000A12010002000000F8
:1002800008EDFE606001000102000105010902A104
:100290000185020901A10005091901290815002598
:1002A0000195087501810205010930093115812583
:1002B0007F95027508810609381581257F9501759E
:1002C000088106050C0A38021581257F95017508FD
:1002D0008106C0C005010980A101850319012AB763
:1002E00000150126B700950175108100C0050C09A5
:1002F00001A101850419012AA002150126A0029579
:100300000175108100C005010906A10185060507D8
:1003100019E029E7150025019508750181020507F7
:10032000190029EF1500250195F0750181020508D6
:100330001901290595057501910295017503910132
:10034000C005010906A101050719E029E7150025E7
:10035000019508750181029501750881010507194C
:100360000029FF150026FF00950675088100050885
:1003700019012905950575019102950175039101F2
:10038000C00011241FBECFEFDAE0DEBFCDBF04B640
:1003900003FE27C08091880290918902A0918A0271
:1003A000B0918B028730904BA740B04BD1F41092A4
:1003B00088021092890210928A0210928B0214BE57
:1003C00084B7877F84BF0FB6F894A89580916000AA
:1003D000886180936000109260000FBEE0E0F8E357
:1003E000099511E0A0E0B1E0E8EFF2E402C0059069
:1003F0000D92AC38B107D9F722E0ACE8B1E001C00A
:100400001D92A838B207E1F70E943A130C947A21A2
:100410000C94000081E0089581E008950C940C0292
:1004200008950C9410021F93CF93DF9300D000D057
:100430001F92CDB7DEB749835A836B8330918E010B
:1004400089819A81311114C0662359F0222349F021
:100450000E94CA08182F682F89819A810E94730808
:1004600003C00E949E08182F69817A81812F04C0E1
:100470000E94CA0869817A810F900F900F900F90A7
:100480000F90DF91CF911F910C947E0FFC01262FCE
:10049000408151816281738184810C94130281E0D7
:1004A0000895CF93DF93EC0160E00E944602BE0105
:1004B000DF91CF910C9411020E94AE110E94DA02DA
:1004C0000C94EB110C94E71180E00C94DB0208957E
:1004D0000C9467020E9414070E9468022FEF84E3C5
:1004E0009CE0215080409040E1F700C000000C9457
:1004F0000B1A0F931F93CF93DF938C0161E00E943F
:100500004602EC01B8010E940E028823F1F1B80105
:10051000CE010E94B0178823C1F1B801CE010E941C
:10052000DA15882391F1B801CE010E940C178823B7
:1005300061F1F8018281882309F1CB358DE5D80777
:10054000C1F050F4C115FCE5DF0781F0CF3DDC457B
:10055000A9F40E947E0E19C0CC35EDE5DE0761F0EE
:10056000CD35DD4559F40E94C10D08C00E946A02D4
:100570000CC00E94CA0D02C00E94CD0DC801DF91BF
:10058000CF911F910F910C940A0280E0DF91CF91DF
:100590001F910F9108950C9467020E940C180E94FD
:1005A000DB020C94CB0208950C94D30281E00895F1
:1005B0000C94D6020895CF93C82F0E94D4028C2F9A
:1005C0000E94D802CF910895CF93DF93CDB7DEB7C5
:1005D0002B970FB6F894DEBF0FBECDBF4F83588761
:1005E00069877A878B8761110E940D0D9E012F5FAD
:1005F0003F4F86E0F90111928A95E9F785E0FE0107
:100600003796D90101900D928A95E1F789819A81F7
:100610004C815D81452B31F09F3F31F491E08F3F5C
:1006200019F403C091E001C090E090FF09C0498136
:100630005A816B817C818D819E810E942E0C05C028
:10064000C9010E944F028111F2CF2B960FB6F89488
:10065000DEBF0FBECDBFDF91CF910895FC01808139
:1006600091810E940C090895CF93882309F4A4C0B6
:10067000C82F8238C1F40E940C1881FD9DC069E327
:1006800080910201909103010E9402190E943F0D86
:100690002FEF81EE94E0215080409040E1F700C0C0
:1006A000000069E319C0833801F50E940C1880FD31
:1006B00083C063E580910201909103010E940219B9
:1006C0000E943F0D2FEF81EE94E02150804090403A
:1006D000E1F700C0000063E5809102019091030101
:1006E0000E940D19CF910C943F0D8438C1F40E94E3
:1006F0000C1882FD61C067E48091020190910301B2
:100700000E9402190E943F0D2FEF81EE94E02150CC
:1007100080409040E1F700C0000067E4DDCF8CEF3F
:100720008C0F813AD0F46C2F8091020190910301DB
:100730000E948218882349F06C2F809102019091C9
:1007400003010E940D190E943F0D6C2F8091020140
:10075000909103010E940219C5CF80E28C0F88306E
:1007600048F4C77081E001C0880FCA95EAF70E947B
:10077000F00CB8CFEBE5EC0FE33040F4F0E0E95BD0
:10078000FE4F808190E0CF910C944018E8E5EC0F8B
:10079000E73150F4F0E0EE0FFF1FE75EFE4F80817F
:1007A0009181CF910C945618CD3E30F08C2F0E9441
:1007B000C913CF910C949B14CF910895882309F409
:1007C00064C0823879F40E940C1881FF5EC069E32E
:1007D00080910201909103010E9402190E943F0D35
:1007E00069E310C08338B1F40E940C1880FF4DC03B
:1007F00063E580910201909103010E9402190E9419
:100800003F0D63E580910201909103010E940D1953
:100810000C943F0D843879F40E940C1882FF35C087
:1008200067E480910201909103010E9402190E94E5
:100830003F0D67E4E7CF9CEF980F913A10F4682FD3
:10084000E1CF90E2980F983050F4877091E001C0AA
:10085000990F8A95EAF7892F0E94F60CD9CF9BE56C
:10086000980F933020F480E090E00C94401898E5C5
:10087000980F973120F480E090E00C9456188D3E4C
:1008800020F00E9424140C949B1408951F93CF937E
:10089000DF93182FEB010E943403209741F08FE97A
:1008A0009FE00197F1F700C000002197F6CF812F5C
:1008B000DF91CF911F910C94DE03893319F060E032
:1008C00070E002C060E570E00C944604882321F0DB
:1008D0000E94F00C0C943F0D0895882321F00E9493
:1008E000F60C0C943F0D0895CF92DF92EF92FF9299
:1008F0000F931F93CF93DF937C01162FC72FFC011B
:10090000D281058102950F700E94E60C8823B9F010
:10091000DD23A9F08C2F807F803421F080E2810FCD
:10092000883068F08091660282FD09C082E00E94F2
:100930008F0D0E94E60C91E0D82ED92601C0D12C53
:10094000CC2EC2948FE0C8228C2D90E0FC01EA5A94
:10095000FF4F0C9411218C2F807FCF70882311F0D2
:10096000C295C07FDD2399F0CC2309F4A6C180E2B3
:10097000810F883010F0111104C08C2F0E94F00CF0
:1009800003C08C2F0E94000D0E943F0D96C1812F45
:100990000E94DE03CC2309F4B5C180E2810F8830C8
:1009A00038F1112329F18C2F0E94060D24C08C2FC1
:1009B000807FCF70803211F0C295C07F112319F073
:1009C0001130A1F13DC08091660282FF17C0DD2386
:1009D00049F0CC2329F08C2F0E94F00C0E943F0D8F
:1009E00080E06CC180E00E94DE03CC2309F48AC160
:1009F0008C2F0E94F60C0E943F0D84C1DD2371F004
:100A0000002341F0013031F40E94200D8C2B0E9414
:100A1000280D78C10E94200D8C2B1DC0002319F0D9
:100A2000013009F46FC10E94350D25C0DD2321F08E
:100A3000063008F067C10EC0053008F063C11BC066
:100A4000DD2361F0002331F0F701858180FF35C19E
:100A50008F7085838C2F0E94660454C1002359F047
:100A6000193309F03BC1FFEF27EE83E0F15020403E
:100A70008040E1F731C18C2F0E946D0443C18C2F5F
:100A800086958695837019F0813061F03BC1DD2336
:100A900021F0812F9C2F937002C080E090E00E9493
:100AA000401838C1DD2321F0812F9C2F937002C0A4
:100AB00080E090E00E9456182DC1812FDD2319F0AF
:100AC0000E94C91302C00E9424140E949B1422C1D8
:100AD0008C2F837009F045C0D11118C1412F429568
:100AE00046954770440F440F612F6F70862F90E03A
:100AF000A0E0B0E0042E04C0880F991FAA1FBB1FFE
:100B00000A94D2F714FF10C00FE010E020E030E0AC
:100B100004C0000F111F221F331F4A95D2F7009502
:100B200010952095309503C000E010E09801C6951F
:100B3000C695C370BC01CD01602B712B822B932B0A
:100B4000C23049F058F4C13019F00E948907DEC064
:100B50000E947707DBC00E949B07D8C00E947507E0
:100B6000D5C0DD2319F08C2F817001C086958823B4
:100B700009F4CCC0412F429546954770440F440F6D
:100B8000612F6F70862F90E0A0E0B0E0042E04C0CB
:100B9000880F991FAA1FBB1F0A94D2F714FF10C019
:100BA0000FE010E020E030E004C0000F111F221F12
:100BB000331F4A95D2F7009510952095309503C0C4
:100BC00000E010E09801C695C695C370BC01CD0148
:100BD000602B712B822B932BC23049F058F4C1301B
:100BE00019F00E944E0892C00E943C088FC00E94DB
:100BF00060088CC00E94AF0789C0CF70DD2339F038
:100C00008C2F0E94D507812F0E9466047FC0812F00
:100C10000E946D048C2F0E94F60778C0123F21F1CC
:100C200028F4103F41F0113FC1F043C0133F19F1C8
:100C3000143F79F03EC0DD2341F0053008F062C07A
:100C40008C2F8F710E941B085DC0063008F05AC0BF
:100C5000F7CF8091660282FF18C0DD2339F08C2F18
:100C60008F710E94D5074EC0DD23C9F38C2F8F7181
:100C70000E94F60747C0DD2329F08C2F8F710E9458
:100C8000C00740C00E94BB073DC0DD2349F0CF71C3
:100C90008C2F0E94D50763E08C2F0E94740D32C008
:100CA00081E00E948F0D023068F182E00E948F0D7A
:100CB00029C0DD2331F0002391F2812F0E943403FB
:100CC00021C0002399F2193349F49FEFE7EEF3E0D6
:100CD0009150E040F040E1F700C00000812F0E94F9
:100CE000DE0310C04C2F4F70612FC7010E947A0F96
:100CF0000E943A090FC04C2F4F70612FC7010E940C
:100D00007D0F08C088EF8C0D843020F40E940C18F1
:100D10000E94DB02DD20C9F00E94E20C80FD15C0BC
:100D2000F70112820E94DC0C0E94D507C7010E94C5
:100D3000C6060E94DC0CDF91CF911F910F91FF90AE
:100D4000EF90DF90CF900C94F607DF91CF911F9139
:100D50000F91FF90EF90DF90CF9008950F931F9326
:100D6000CF93DF93EC01688179818A810E94170912
:100D70008C010E9472080E946307B801CE010E9494
:100D80007404DF91CF911F910F910895CF93DF935A
:100D9000EC01988189812B813C81232B31F08F3F9D
:100DA00031F481E09F3F19F403C081E001C080E08D
:100DB00080FD1DC0CE010E947902811110C00E94E9
:100DC000E60C8823A1F08A81882389F0809166024D
:100DD00082FD0DC082E0DF91CF910C948F0DCE018A
:100DE0000E94AE06CE01DF91CF910C945102DF91AB
:100DF000CF91089580E090E00E94401880E090E05C
:100E00000E9456180E940D0D0E941D0D0E943F0D5C
:100E10000E94CC150C949B148091020190910301C7
:100E20000E9418190C94FA060E94FD0C0C940C07F1
:100E3000E92FE295EF704E2F50E0FA013297EE3035
:100E4000F105B0F4EA59FF4F0C941121803F91F065
:100E500018F4883E68F40EC0843F51F40BC0883EFD
:100E600048F0813F29F406C093FB882780F9089554
:100E700080E0089581E00895FC01808191810E94C5
:100E80000C090E9418070895CF93DF9300D000D07B
:100E90001F92CDB7DEB70F900F900F900F900F906D
:100EA000DF91CF910895CF93DF9300D000D000D091
:100EB000CDB7DEB726960FB6F894DEBF0FBECDBF16
:100EC000DF91CF910895089508950C9464070C94D0
:100ED00065070E9467076093B1017093B201809328
:100EE000B3019093B4010C94FA060C9469070F9324
:100EF0001F930091B1011091B2012091B301309183
:100F0000B401602B712B822B932B1F910F910C94AA
:100F100069070F931F930091B1011091B2012091C5
:100F2000B3013091B40160237123822393231F9175
:100F30000F910C9469070F931F930091B1011091C9
:100F4000B2012091B3013091B4016027712782274B
:100F500093271F910F910C9469070C9464070E94CA
:100F6000AD076093AD017093AE018093AF01909394
:100F7000B0010C94FA0660E070E0CB010C94AF076E
:100F80000F931F9341E050E060E070E08A019B0105
:100F900004C0000F111F221F331F8A95D2F7C90109
:100FA000B8011F910F910C94AF070F931F9341E06D
:100FB00050E060E070E004C0440F551F661F771FCB
:100FC0008A95D2F78091AD019091AE01A091AF01C9
:100FD000B091B0018A019B01082B192B2A2B3B2BC6
:100FE000C901B8011F910F910C94AF070F931F9384
:100FF00041E050E060E070E004C0440F551F661F00
:10100000771F8A95D2F7409550956095709580919D
:10101000AD019091AE01A091AF01B091B0018A01F4
:101020009B01082319232A233B23C901B8011F91DF
:101030000F910C94AF070F931F9341E050E060E0D5
:1010400070E004C0440F551F661F771F8A95D2F7C2
:101050008091AD019091AE01A091AF01B091B0012E
:101060008A019B01082719272A273B27C901B801B4
:101070001F910F910C94AF070F931F930091AD0137
:101080001091AE012091AF013091B001602B712B16
:10109000822B932B1F910F910C94AF070F931F93EB
:1010A0000091AD011091AE012091AF013091B001DE
:1010B00060237123822393231F910F910C94AF0718
:1010C0000F931F930091AD011091AE012091AF01DC
:1010D0003091B00160277127822793271F910F91CC
:1010E0000C94AF0708952CE0929F800D1124E82FF7
:1010F000E695E695E695877051E001C0550F8A9513
:10110000EAF785E0E89FF0011124E157FE4F20E067
:1011100030E070E04081CB01022E02C096958795A9
:101120000A94E2F78170819584278523842781932F
:101130002F5F3F4F2530310569F708952CE0929FCE
:10114000800D1124682F669566956695982F977087
:1011500085E0689FB001112440E050E080E0FB0191
:10116000E40FF51FE157FE4F208130E0092E02C049
:10117000369527950A94E2F721703327042E01C093
:10118000220F0A94EAF7822B4F5F5F4F45305105DB
:1011900031F70895BF92CF92DF92EF92FF920F93B3
:1011A0001F93CF93DF938C01C090AD01D090AE011F
:1011B000E090AF01F090B0018091B1019091B20147
:1011C000A091B301B091B401C82AD92AEA2AFB2A16
:1011D000CFE1D0E0D701C6010C2E04C0B695A7958B
:1011E000979587950A94D2F780FD04C0219790F7D0
:1011F000B12C07C0BC2EB8018C2F0E94B5100197EE
:10120000A9F38B2DDF91CF911F910F91FF90EF905C
:10121000DF90CF90BF900895CF93DF93EC010E94B1
:10122000CA08BE010E94B510DF91CF9108951F93A7
:10123000CF93DF93EB0190918E01992321F0CB01A5
:101240000E940C0913C0882349F0CB010E94CA08F0
:10125000182F682FCE010E94730804C0CB010E9492
:101260009E08182FBE01812F0E94B510DF91CF91EB
:101270001F910895EF92FF920F931F93CF93DF93E7
:101280008C01892B09F46CC0F12CEE24E394E80165
:101290002196F8018491843740F4843008F051C0DD
:1012A000813081F0823019F15BC0853709F444C088
:1012B000A8F19CE7980F903708F052C08F770E94F2
:1012C000DE0341C00E5F1F4FFE01849190E2980F34
:1012D000983050F48770FE2D01C0FF0F8A95EAF711
:1012E0008F2F0E94100D14C00E9434032DC00E5F7A
:1012F0001F4FFE01849190E2980F983060F4877040
:10130000FE2D01C0FF0F8A95EAF78F2F0E94160D60
:101310000E943F0D19C00E94DE0316C00E5F1F4FD2
:10132000FE01C491CC2381F08FE99FE00197F1F792
:1013300000C00000C150F6CF0E5F1F4FFE01F490B9
:1013400003C00E9434038E018F2D882309F49FCFA0
:10135000EFE9FFE03197F1F700C000008150F5CFD1
:10136000DF91CF911F910F91FF90EF9008951F9300
:10137000CF93DF93C091B50116E08091B601C817F5
:1013800099F0D0E01C9FF0011D9FF00D1124E9544D
:10139000FE4F4081518162817381848195810E94D9
:1013A00053072196C770E9CFDF91CF911F91089520
:1013B0004091E7015091E8016091E9017091EA01E3
:1013C0008091EB019091EC010C945307EF92FF9206
:1013D0000F931F93CF93DF938091EC0182958F70D1
:1013E00009F065C08091E901882309F460C080910B
:1013F000B501F090B6011091E7010091E80160910C
:10140000EA017091EB0191E01F3F09F090E0C0917B
:101410000001D0910101292F96E0E92E8F1509F4E2
:1014200046C06115710521F00F3F21F030E003C087
:1014300031E001C0322F90E030FD36C0E89EF0016F
:10144000E99EF00D1124DF01A954BE4F11963C9185
:101450001197301329C03C91311326C012963C914C
:101460001297311121C013964D915C911497461B30
:10147000570B4C175D07C0F48091EC018F708061B1
:101480008093EC01E454FE4F80818F7080618083F3
:1014900087EE91E00E94C606DF91CF911F910F91D8
:1014A000FF90EF900C94B70901968770B7CFDF914A
:1014B000CF911F910F91FF90EF9008959F92AF925F
:1014C000BF92CF92DF92EF92FF920F931F93CF9331
:1014D000DF93CDB7DEB761970FB6F894DEBF0FBECE
:1014E000CDBF8C0185E0F801DE011D9601900D92C3
:1014F0008A95E1F7D8011296EC909091E701E0917E
:10150000E8012091EA013091EB012115310531F01C
:10151000EF3F31F481E09F3F19F403C081E001C047
:1015200080E0B82FB1709B2E80FD47C1D8014C914F
:1015300011965C9111971396AD90BC90149787EE1D
:10154000C82E81E0D82EF090E901B501621B730B23
:101550002091000130910101FF2009F4D9C0809150
:10156000EC016217730708F095C0282F207F09F05F
:1015700052C05E1313C0491311C0FE2CE1100EC0FF
:101580008F7080618093EC010E94D809C6010E948F
:10159000C6068091EC01F80185834DC1AB2831F07E
:1015A0005F3F31F481E04F3F19F403C081E001C097
:1015B00080E080FD03C081E08E2502C080E090E0E5
:1015C000F82FF170FF2E80FF1CC08091B501209193
:1015D000B60136E0821709F40BC190E0389FF001A4
:1015E000399FF00D1124E954FE4F6181561306C056
:1015F0006081461303C06281E61203C001968770C2
:10160000E9CFFE2CEE2009F416C18091EC01816037
:101610008093EC0154C05E1306C0491304C0E1106E
:1016200002C0F80199C0C8010E943C07882361F1FB
:10163000EE2051F12091EC01822F82958F7090E085
:10164000029774F08091E7019091E80198878F8369
:101650001986BB86AA862C87CE0107960E94C606ED
:1016600086E0F801A7EEB1E001900D928A95E1F7CE
:101670000E94E6090E94D8090AC05E1711F1C8014C
:101680000E943C0781112CC0C8010E94C606FF249D
:10169000F394D1C0282F207F81F77A2DB98AA88AA8
:1016A0006E2D89890E94440787EE91E00E94C6064C
:1016B00086E0D6011D928A95E9F70E94D809F12C9F
:1016C000BAC04913DCCFE110DACFF8018583C80135
:1016D0000E94C60686E0D6011D928A95E9F7ABC046
:1016E000EE2091F22091EC01822F82958F7090E094
:1016F00002970CF4B5CF8091E7019091E8019A83AD
:1017000089831B82BD82AC822E83CE010196A6CF37
:101710006217730708F044C0FE2CEE2009F4B4CF22
:101720005E1330C049132EC02091EC0120FD21C072
:10173000822F82958F70482F50E041155105C9F0D6
:10174000F80125834F30510541F08F5F982F929516
:10175000907F822F8F70892B8583C8010E94C606D7
:1017600086E0F801A7EEB1E001900D928A95E1F7CD
:101770003CC086E0F801A7EEB1E001900D928A9599
:10178000E1F759C0C8010E943C07811169CF8091DF
:10179000EC0181608093EC01C8010E94C6064BC039
:1017A0007A2DB98AA88A6E2D89890E94440786E01D
:1017B000D6011D928A95E9F718C0EE2009F464CF8E
:1017C000C8010E943C07F82E882309F45DCF86E00B
:1017D000F801A7EEB1E001900D928A95E1F787EE4E
:1017E00091E00E942E030E94E6090E94D80923C0BE
:1017F0004D875E878D859E850E940C09292F229535
:101800002F70223028F49F7039F0811105C00BC071
:10181000243028F49F7049F4805E883020F0C8019D
:101820000E94C6069F2CF92C06C0D80115969C91E3
:10183000907F91F7F8CF8F2D61960FB6F894DEBFA9
:101840000FBECDBFDF91CF911F910F91FF90EF9011
:10185000DF90CF90BF90AF909F9008951F93CF934C
:10186000DF93CDB7DEB72C970FB6F894DEBF0FBE6F
:10187000CDBF4F83588769877A878B879C87CE0136
:1018800007960E945E0A8823D1F09F8188852A8569
:101890003B85232B31F08F3F31F481E09F3F19F4DA
:1018A00003C081E001C080E080FD47C04F815885C2
:1018B00069857A858B859C850E9453073EC086E0AA
:1018C000FE013796DE01119601900D928A95E1F79F
:1018D000FF81E8856A857B856115710531F0EF3FF1
:1018E00031F481E0FF3F19F403C081E001C080E0E2
:1018F00080FD23C02091B60130E0C90101968770B8
:1019000099274091B50150E084179507F1F1F983CB
:10191000EA837D836C8396E0929FD001939FB00D04
:101920001124A954BE4FFE01319601900D929A9553
:10193000E1F78093B6010E94B70916E08091B501E6
:101940009091B601891771F1189FC0011124895433
:101950009E4F0E945E0A882329F1E091B5011E9FE7
:10196000F0011124E954FE4F40815181628173815D
:10197000848195810E9453078091B50190E0019682
:10198000877099278093B501D9CF0E9414071092D0
:10199000B6011092B501E7EEF1E086E0DF011D929D
:1019A0008A95E9F72C960FB6F894DEBF0FBECDBF2F
:1019B000DF91CF911F9108958091ED0185958595D7
:1019C000859508958091ED01877008959091ED01BE
:1019D000977081E009F480E00895809111020895E4
:1019E00090911102892B8093110208958095909116
:1019F0001102892380931102089510921102089513
:101A000090911002892B80931002089580959091F7
:101A100010028923809310020895109210020895F5
:101A200090910F02892B80930F02089580959091D9
:101A30000F02892380930F02089510920F020895D8
:101A40008091EE01089508950C94230D0C94240DBB
:101A50009091660292FD08C09091EE01981721F0D6
:101A60008093EE010C94260D08958091EE01882359
:101A700029F01092EE0180E00C94260D0895E0917B
:101A80000201F0910301809111028083E091020133
:101A9000F0910301908180911002892B8083E09165
:101AA0000201F0910301908180910F02892B8083C4
:101AB0008091EE01882381F0E0910201F091030111
:101AC0009081892B808380910201909103010E9473
:101AD0006C1881110E94350D8091020190910301D3
:101AE0000C9418180C94230D9091660292FD10C06E
:101AF00098E0899F90011124262B2093ED010E94EC
:101B0000D5078091ED018595859585950C94720D8D
:101B10000C94D5071092ED0180E00C94720D209189
:101B2000ED01809582238093ED01982F977099F4B1
:101B300030E0482F082E000C550B2417350759F0BC
:101B40009091660292FD07C08595859585950E94C6
:101B5000F6070C948A0D08959091660292FB222755
:101B600020F9281769F080FB92F990936602809122
:101B70006502909166020E94FA0D82E00C948F0D2E
:101B800008958091660282FB882780F991E0892779
:101B90000C94AC0D81E00C94AC0D80E00C94AC0D79
:101BA0006FEF7FEF80E090E00C94642180E090E0A4
:101BB0000E94402121E0893E9E4F09F020E0822FC3
:101BC000089582E090E00C94382183E090E00C943A
:101BD0003821CF9384E090E00E943821C82F82E220
:101BE00090E00E9438212C2F30E0A901582BCA0127
:101BF000CF910895CF93C92F682F84E090E00E9481
:101C000046216C2F82E290E0CF910C944621AB01EB
:101C1000BC018FE090E00C945821AB01BC0183E142
:101C200090E00C94582160E070E0CB010C940D0E14
:101C300060E070E0CB010E94070E0C94130E69EE79
:101C40007EEF80E090E00E94642160E082E090E01E
:101C50000E94462160E083E090E00E9446211092BD
:101C6000B1011092B2011092B3011092B40160E080
:101C700084E090E00E94462160E082E290E00E94D1
:101C8000462160E085E090E00E94462160E086E029
:101C900090E00E9446216FEF87E090E00E9446218D
:101CA00040E050E0BA0188E090E00E94582160E0F6
:101CB0008DE090E00E94462140E050E0BA0188E1CA
:101CC00090E00E94582160E087E190E00E94462168
:101CD00040E050E0BA018CE190E00E94582160E0C1
:101CE00070E080E290E00E94642140E050E0BA01A0
:101CF00088E190E00E9458210C94180E0C941F0E5D
:101D0000682F8EE090E00C9446210E94CA196093DF
:101D10001F0270932002809321029093220260930D
:101D20001B0270931C0280931D0290931E02089563
:101D300085B7806885BF85B7806885BF089581E0D5
:101D400008950C949F0E08950C94A30E0C94A30E6A
:101D50000C94A60E0C94A30E0C94AA0E0C94A30E35
:101D60000E94980E81E991E10E9402180E94AE0E35
:101D70000C94AC0E0E94A40E0C94A30E0E94B519F4
:101D80000E9493120C94A80E6F927F928F929F9252
:101D9000AF92BF92CF92DF92EF92FF920F931F9379
:101DA000CF93DF93CDB7DEB72A970FB6F894DEBF97
:101DB0000FBECDBF0E94A81281110E94850E33E193
:101DC000832E32E0932E00E010E0C02E802F0E9480
:101DD000D2115C01F401619071904F01682679265F
:101DE00061147104B1F40F5F1F4F0430110569F7DE
:101DF0008FEF89838A831B820E94BE198160782FAE
:101E00009D838C8349815A816B818D810E94E4027C
:101E10003AC08091230281FD0E94DB11D12CEE2477
:101E2000E394F12CC3018E219F21892B29F10E947B
:101E3000A10E8823A9F0DE82CF82AE20BF2081E0F0
:101E4000AB2809F480E088870E94BE198160782F52
:101E50009A8789874E815F8168858A850E94E4021E
:101E6000000F111FF801ED5EFD4F80819181E82682
:101E7000F926F182E08207C0D394EE0CFF1CFCE04F
:101E8000DF12D0CFB0CF0E94B9140E940C189091ED
:101E900012028917D1F00E940C18809312022A9620
:101EA0000FB6F894DEBF0FBECDBFDF91CF911F916B
:101EB0000F91FF90EF90DF90CF90BF90AF909F90E9
:101EC0008F907F906F900C94DB022A960FB6F89457
:101ED000DEBF0FBECDBFDF91CF911F910F91FF905D
:101EE000EF90DF90CF90BF90AF909F908F907F90BA
:101EF0006F90089580E090E00895089520E3829F18
:101F0000C0011124FC012CE0729FE00DF11D112491
:101F1000E60FF11DEE0FFF1FE450FF4F85919491E6
:101F20000895880F991FFC01E45EFD4F85919491FF
:101F30000895CF93DF930E94BA10EC01811520E53C
:101F4000920708F03FC0811540E4940708F0D2C022
:101F5000883E910500F5803E910508F002C1883A5F
:101F6000910570F4853A910508F0A6C0813091057D
:101F700009F49FC008F4F2C0049708F0F2C0EEC064
:101F80008F3B910508F4A1C0803C910508F4E6C0A0
:101F9000805C9109A5C0811550E2950760F4C115D8
:101FA00081E0D80708F0DDC0CD3ED10508F4D6C0E9
:101FB000CE019065D7C0811520E3920708F093C049
:101FC0009F708EC0811545E5940708F046C08115C5
:101FD00054E5950708F0A6C0C11582E5D80718F5A5
:101FE000C11521E5D20708F088C0CE01F4E096952E
:101FF0008795FA95E1F7282F23703C2F337081E005
:1020000090E002C0880F991F3A95E2F79C68922BE6
:102010002C2F2F702695269540E2249F90011124A5
:10202000822B932B9FC09E01237033279C2F969564
:102030009695C115D34508F065C041E050E002C057
:10204000440F551F2A95E2F780E2989F90011124D2
:10205000CA01822B932B9C6885C0811559E5950791
:1020600098F4C11588E5D80708F061C0C11526E5C8
:10207000D20708F073C08C2F0E944E118F7190E030
:10208000982F882790626EC081154AE5940708F45E
:1020900053C090568115904208F060C08D2F8F710B
:1020A0000E944E119E01332730628F71A901582B77
:1020B00053C081E090E056C0855AC82FD0E0C85880
:1020C000DE4F888190E090644DC0885AC82FD0E0E0
:1020D000CC0FDD1FC65BDE4F88819981946442C0BE
:1020E0000E94910F3FC09927D3FF02C0986C3AC05D
:1020F000906C38C09F70906A35C09C2F8827816F84
:10210000906A30C041E050E002C0440F551F2A954C
:10211000E2F780E2989F90011124CA01822B932B51
:102120009A6820C0982F8827846F906A1BC09C2FC4
:102130008827806F906A16C08F700E944E119E0192
:1021400094E0369527959A95E1F72F7030E0322F7D
:1021500022273069A901482BCA0104C080E090E021
:1021600001C0CE01DF91CF9108950E947E0F0E94A1
:10217000990F08958238910569F1B0F48133910582
:1021800009F46DC048F48932910509F463C08A32BC
:10219000910509F469C008958533910509F455C086
:1021A00089339105B9F00895833E910569F138F4BA
:1021B000803E9105B1F0823E910509F10895863E79
:1021C0009105A9F1873E9105B9F1843E910509F089
:1021D00064C023C02091650220FD4FC021FD4DC089
:1021E00008958091650280FD44C08091660280FF61
:1021F00044C08091650284FD42C083EE4DC0809151
:10220000650282FF38C0F5CF8091650282FD33C040
:102210008091660280FD31C0ECCF8091660281FF23
:1022200032C08091650284FD2AC087EE35C080915E
:10223000650283FF26C0F5CF8091650283FD21C032
:102240008091660281FD1FC0ECCF8091650285FD03
:102250001CC01DC08091650285FD19C016C080910B
:10226000650286FD16C017C08091650286FD13C009
:1022700010C089E311C082EE0FC080EE0DC080E077
:102280000BC086EE09C084EE07C089E205C085E375
:1022900003C08AE201C081E390E008959091650255
:1022A00092FF0DC0282F2871283019F4877F846091
:1022B00006C0282F2471243011F48B7F886093FF8F
:1022C0000DC0282F2871283119F4877E846106C03B
:1022D000282F2471243111F48B7E886120916602AD
:1022E00020FF0DC0382F3871383019F4877F816096
:1022F00006C0382F3171313011F48E7F886021FF94
:102300000DC0282F2871283119F4877E816106C0FD
:10231000282F2171213111F48E7E886194FD877EF2
:10232000089580E008950C94D00D0E94A8122FEF1C
:1023300086E791E0215080409040E1F700C0000026
:102340000E94A81280E00E94D21180FF04C00E9467
:1023500093110C940B1A08950C9495110E94D60DAC
:10236000811102C00E947E0E0E94E10D8093230223
:102370000E94E90D90936602809365020E94AC1161
:102380000E94E50D682F70E080E090E00E947507E4
:102390006091AD017091AE018091AF019091B0015B
:1023A0000C94AD07E82FF0E0EE0FFF1FE159FD4F51
:1023B000808191810895089580EA8A95F1F70895C2
:1023C00000C008950C94DC1108950C94E4110C9451
:1023D000E5110C94E4110C94E911F894E82FE295BE
:1023E000EF70F0E031A1282F2F7081E090E001C064
:1023F000880F2A95EAF7982F9095932391A392A19D
:10240000892B82A3789408950F931F93CF93DF9322
:10241000C7E8D1E089918F3F11F00E94ED1181E072
:10242000CB38D807B9F7CBE7D1E007E811E08991BD
:102430008F3F11F00E94ED110C171D07C1F7DF91BE
:10244000CF911F910F910895BF92CF92DF92EF929B
:10245000FF920F931F93CF93DF938C01C62FD0E091
:10246000CE0189579E4F6C01FC0190819F3F09F47A
:1024700050C0B62EF894E92FE295EF70F0E081A1FC
:102480009F7021E030E001C0220F9A95EAF7822B7D
:1024900081A382A12095282322A378940E94E01191
:1024A000EBE7F1E047E851E021E030E0E12CF12CEE
:1024B00061916F3F89F0A62FA295AF70B0E0909622
:1024C0008C9190E06F7002C0959587956A95E2F7C0
:1024D00080FD02C0C90102C080E090E0E82AF92A2C
:1024E000220F331F4E175F0719F7F60180818F3FC8
:1024F00011F00E94ED1161E0E114F10409F460E0D3
:102500008B2D0E94E211CC0FDD1FC00FD11FF9826D
:10251000E882DF91CF911F910F91FF90EF90DF90B4
:10252000CF90BF9008950E94041288E0EFE6F2E099
:10253000DF01982F1D929A95E9F7E7E6F2E0DF01B7
:102540001D928A95E9F784E00E94F3120C945C02D4
:10255000FF920F931F93CF93DF93CDB7DEB72897EA
:102560000FB6F894DEBF0FBECDBF8E010F5F1F4FB9
:1025700088E0F80111928A95E9F7F12C6F2DC801D6
:102580000E942412F394F4E0FF12F8CF48E050E0E8
:10259000B80187E692E00E942B21FF24F394009774
:1025A00009F4F12C892B41F088E0F801A7E6B2E0AC
:1025B00001900D928A95E1F72F2D44E06FE672E0CD
:1025C00087E692E00E94F4120E9462028F2D289604
:1025D0000FB6F894DEBF0FBECDBFDF91CF911F9134
:1025E0000F91FF9008950895FF920F931F93CF933B
:1025F000DF93F82E092F162FD72FC42F222349F04F
:1026000081E0809326020E94BE1990932502809358
:102610002402809126028823D9F08091240290918F
:1026200025020E94D619059798F0EF2DF02FA12FC3
:10263000BD2F80E090E04C2F50E08417950734F4D4
:10264000219131912D933D930196F7CF109226025F
:10265000DF91CF911F910F91FF9008950E94C31BAE
:102660000E94BE0E0C94CF1B0E94D31B0E94C40E6E
:102670000C94ED1B0E9444190E94AA1B0E94B00EEC
:102680000E942E130E9434130E94BA0EFBCF809139
:102690002D0280FF0BC06091090185E0689FB001A9
:1026A000112475956795759567952BC081FF09C0B5
:1026B0006091090185E0689FB001112475956795C7
:1026C00020C082FF07C06091090185E0689FB001CA
:1026D000112417C090912C029923D1F06091080128
:1026E000961788F72091090185E0289F9001112411
:1026F000929FA001939F500D112470E0CA010E9487
:10270000FD206038710540F46115710519F406C0AB
:1027100065E070E0862F08958FE7089581E00895C1
:1027200080912D0280FF08C06091050170E07595D1
:1027300067957595679521C081FF06C06091050179
:1027400070E07595679519C082FF04C0609105011E
:1027500070E010C090912B02992399F060910401D0
:102760009617A0F780910501899FC001112470E0A0
:102770000E94FD206038710540F46115710519F45F
:1027800006C061E070E0862F08958FE7089581E02C
:1027900008958D3E21F40E944713819504C08E3E1A
:1027A00029F40E9447138093310208958F3E21F44B
:1027B0000E944713819504C0803F29F40E9447136B
:1027C000809330020895893F19F40E94901305C048
:1027D0008A3F31F40E9490138195809332020895CC
:1027E0008B3F21F40E949013819504C08C3F29F403
:1027F0000E9490138093330208959FE0980F9830C1
:1028000078F421E030E0A90102C0440F551F9A95E9
:10281000E2F7CA0190912F02892B80932F0208952D
:102820008D3F21F480912D0281600BC08E3F21F4F9
:1028300080912D02826005C08F3F29F480912D0286
:10284000846080932D0208958D3E39F49091310279
:1028500097FF35C01092310259C08E3E29F49091F5
:1028600031021916BCF32BC0909130028F3E29F42F
:1028700097FF25C01092300249C0803F19F4191605
:10288000CCF31DC090913202893F29F41916BCF493
:10289000109232023BC08A3F19F497FF10C0F8CF64
:1028A0008B3F39F49091330297FF09C010923302A5
:1028B0002DC08C3F21F4909133021916BCF39FE098
:1028C000980F983080F421E030E0A90102C0440F55
:1028D000551F9A95E2F7CA01809590912F0289239E
:1028E00080932F0213C08D3F21F480912D028E7FA3
:1028F0000BC08E3F21F480912D028D7F05C08F3F4C
:1029000029F480912D028B7F80932D0280913002DB
:10291000811106C080913102811102C010922C02F7
:1029200080913202811106C080913302811102C070
:1029300010922B0208950E94BE192091300221119D
:1029400004C020913102222321F090932A02809327
:10295000290220913202211104C020913302222346
:1029600021F090932802809327028EE292E00C944B
:102970003218EF92FF920F931F93CF93DF9300D003
:1029800000D000D0CDB7DEB786E0EEE2F2E0DE01A7
:10299000119601900D928A95E1F7E0903002F09047
:1029A00031020091320210913302109230021092E3
:1029B00031021092320210923302E11003C0FF2064
:1029C00009F45DC08091290290912A020E94D619D3
:1029D000AC0190912C02992339F020910A0130E04A
:1029E0002417350758F04BC020910B018AE0289F2F
:1029F000900111242417350718F041C09F3F19F0AA
:102A00009F5F90932C02EE2061F00E9447131E14EA
:102A100014F09FEF01C091E0989F902D11249093A6
:102A20003002FF2061F00E9447131F1414F09FEF43
:102A300001C091E0989F902D112490933102309124
:102A400030023323E1F0209131022223C1F045EB23
:102A50003403C0011124992319F09093300203C06C
:102A600081E08093300235EB2303C00111249923C8
:102A700019F09093310203C081E08093310201117B
:102A800003C0112309F45DC08091270290912802B0
:102A90000E94D619AC0190912B02992339F0209114
:102AA000060130E02417350758F04BC0209107018C
:102AB0008AE0289F900111242417350718F041C09F
:102AC0009F3F19F09F5F90932B02002361F00E94BB
:102AD0009013101614F09FEF01C091E0989F902D75
:102AE000112490933202112361F00E949013111669
:102AF00014F09FEF01C091E0989F902D11249093C6
:102B00003302309132023323E1F020913302222349
:102B1000C1F045EB3403C0011124992319F09093BF
:102B2000320203C081E08093320235EB2303C001FF
:102B30001124992319F09093330203C081E080930C
:102B400033028091300281110BC0809131028111DA
:102B500007C080913202811103C08091330281113C
:102B60000E949B14EB82FC820D831E8386E0FE0193
:102B70003196AEE2B2E001900D928A95E1F7269689
:102B80000FB6F894DEBF0FBECDBFDF91CF911F917E
:102B90000F91FF90EF900895EEE2F2E086E0DF0102
:102BA0001D928A95E9F710922C0210922B02109236
:102BB0002D020895CF93DF93EC01FB0182818823DE
:102BC00009F426C1C430FDE5DF0760F4CB3F9CE586
:102BD000D90768F49E0122503C452431310508F0A4
:102BE00018C105C0C236EDE5DE0709F012C10E942A
:102BF000E90D9093660280936502C031FCE5DF0722
:102C000009F4CAC008F041C0C8309CE5D90709F4EE
:102C1000A4C0F0F4C430FCE5DF0709F48CC068F40C
:102C2000C2309CE5D90709F482C0C330DC4509F005
:102C3000E5C0809165028260DFC0C630FCE5DF0739
:102C400009F483C008F085C0809165028860D4C013
:102C5000CC309CE5D90709F490C068F4CA30FCE593
:102C6000DF0709F47EC008F084C00E941407809139
:102C700065028068C1C0CE309CE5D90709F481C0E7
:102C800008F086C08091650294C0CD3FFCE5DF0767
:102C900009F47BC038F5C4319CE5D90709F49AC022
:102CA00058F4C231FCE5DF0709F47AC008F07EC0B1
:102CB000809165028F7BA0C0CB3F9CE5D907F1F1E5
:102CC00008F03FC0C531DC4509F098C0809165022D
:102CD00082FB222720F991E0922790FB82F990FB5A
:102CE00083F98AC0C1308DE5D80709F467C050F474
:102CF00080916602CF3FECE5DE07C1F108F05BC0D2
:102D00008D7F65C0C3308DE5D80709F471C008F424
:102D10006DC0C236DD4509F071C08091650284FB4B
:102D2000222720F991E0922790FB84F965C08091D9
:102D30006502816061C08091650216C08091660263
:102D400016C080916602826042C0809165028061F7
:102D500053C08091650280624FC08091650280649B
:102D60004BC0809165028860846046C0826081604B
:102D70002EC0809165028E7F3FC0809165028D7F5D
:102D80003BC080916502877F37C08091660214C086
:102D9000809165028F7E30C0809165028F7D2CC04E
:102DA0000E941407809165028F7726C0809165028A
:102DB000877F8B7F21C08D7F8E7F09C080916602C7
:102DC000982F909591708E7F892B90FB81F980933D
:102DD000660214C00E9414078091650287FB2227B7
:102DE00020F991E0922790FB87F906C081E001C0AD
:102DF00080E00E94800E02C080936502809165028F
:102E0000909166020E94FA0D0E94140780E001C0B2
:102E100081E0DF91CF910895CF93DF9386319C4578
:102E200041F5EB010E94ED0C982F8A81209102015F
:102E300030910301882379F09A7A81E009F480E0E7
:102E400080933402911102C069E201C065E3C901B7
:102E50000E9402190AC080913402811102C069E205
:102E600001C065E3C9010E940D190E943F0D80E079
:102E700001C081E0DF91CF9108950F931F93CF930D
:102E8000DF93C42FD22FFC0182818823C9F04093A5
:102E900037020E94BE19909336028093350280E279
:102EA0008C0F883008F057C0C77081E001C0880FD0
:102EB000CA95EAF7DF91CF911F910F910C946604A8
:102EC00080913702481330C08091350290913602CC
:102ED0000E94D619883C910538F510E21D0FCD17D8
:102EE000B9F080E28C0F883040F4C77081E001C0F7
:102EF000880FCA95EAF70E946D04183028F581E022
:102F00009D2F977001C0880F9A95EAF70E9466047A
:102F1000802F0E945D041830F0F4D77081E001C06A
:102F2000880FDA95EAF70AC080E28C0F883098F4AF
:102F3000C77081E001C0880FCA95EAF7DF91CF9191
:102F40001F910F910C946D04802FDF91CF911F91F1
:102F50000F910C945D04DF91CF911F910F91089513
:102F60000F939C01CB01243F4CE5340731F188F4E9
:102F7000293DFCE53F07D9F02A3D4CE5340779F1BE
:102F8000283D3C45A9F506E221EE41EE68ED7CE5E1
:102F90002BC0263FFCE53F07E1F0A8F0273F3C456A
:102FA00039F507E225EE46EE67EF7CE51DC007E246
:102FB00025EE45EE69ED7CE517C006E221EE40EE18
:102FC00064EF7CE511C007E225EE44EE65EF7CE599
:102FD0000BC006E221EE42EE66EF7CE505C008E29A
:102FE00021E045EE6AED7CE50E943D1780E008C0D7
:102FF000FC018281882319F01092370201C081E020
:103000000F91089590938D0180938C010895909372
:103010003D0280933C020895E0913C02F0913D0214
:10302000309721F00190F081E02D099480E008951F
:10303000E0913C02F0913D02309799F02091180107
:10304000222359F02091650227FF07C0DC012C9153
:1030500011962C93119726E02C930280F381E02D9A
:1030600009940895E0913C02F0913D02309739F0C7
:1030700022E0DC012C930480F581E02D0994089571
:1030800020913A0230913B022817390771F0909352
:103090003B0280933A02E0913C02F0913D0230976E
:1030A00021F00680F781E02D0994089520913802DF
:1030B000309139022817390771F0909339028093C3
:1030C0003802E0913C02F0913D02309721F00084FB
:1030D000F185E02D09940895FC0132968091180144
:1030E000882331F08091650287FF02C09EE101C014
:1030F00096E080E0915028F021912223D9F38F5F50
:10310000F9CF0895662351F1209118012223E9F0A7
:103110002091650227FF19C0462F46954695469592
:103120004E31E0F4677021E030E002C0220F331F1F
:103130006A95E2F7FC01E40FF11D828190E02823FB
:10314000392381E0232B69F409C0FC0132960896EB
:103150002191621729F0E817F907D1F780E0089567
:1031600081E008959C01FC0132969FEF80E041913F
:10317000461789F09F3F19F4411101C0982F8F5FC6
:103180008630A9F79F3F39F0F901E90FF11D97FD4E
:10319000FA956283089508959C012A5F3F4FFC01D0
:1031A0004281461301C01282019682179307B9F734
:1031B0000895262F2695269526952E3168F4FC0134
:1031C000E20FF11D677021E030E001C0220F6A9527
:1031D000EAF78281282B22830895262F26952695AB
:1031E00026952E3170F4FC01E20FF11D677021E08D
:1031F00030E001C0220F6A95EAF7209582812823EA
:103200002283089520911801222329F0209165023C
:1032100027FD0C94D9180C94B21820911801222380
:1032200029F02091650227FD0C94ED180C94CC1820
:1032300020911801FC013296222331F08091650221
:1032400087FF02C08EE101C086E0DF011D928A95F2
:10325000E9F7089508950C942A1983E080933E02BB
:103260000C942B19811102C081E001C082E080938F
:103270003E020C942B190C94321981E080933E028B
:103280000C942B190C943D19089580917F02843081
:1032900031F10E94640210923F0220E488E190E044
:1032A0000FB6F894A895809360000FBE209360003D
:1032B00083B7817F846083BF83B7816083BF789445
:1032C000889583B78E7F83BF0FB6F894A8958091B9
:1032D0006000886180936000109260000FBE0895C6
:1032E00008950C947019CF930E9471190E94A8122E
:1032F0000E947019C0E08C2F0E94D211892B29F4F2
:10330000CF5FC430C1F780E001C081E0CF91089564
:103310000E9414070C94CD021F920F920FB60F92C9
:1033200011248F939F93AF93BF9380913F0281119C
:1033300013C08091770290917802A0917902B091A8
:103340007A024196A11DB11D809377029093780275
:10335000A0937902B0937A02BF91AF919F918F9120
:103360000F900FBE0F901F90189582E084BD93E0E0
:1033700095BD9AEF97BD80936E0008952FB7F8948E
:103380008091770290917802A0917902B0917A02AF
:103390002FBF08952FB7F89460917702709178024B
:1033A0008091790290917A022FBF08959C014FB7C6
:1033B000F8948091770290917802A0917902B0916F
:1033C0007A024FBF821B930B089578941F920F923D
:1033D0000FB60F9211248F939F93AF93BF93809159
:1033E000770290917802A0917902B0917A020196C9
:1033F000A11DB11D8093770290937802A09379026A
:10340000B0937A02BF91AF919F918F910F900FBEB1
:103410000F901F90189587E797E790930108809386
:1034200000089AE088E10FB6F894A89580936000B0
:103430000FBE90936000FFCF8091630208950895BE
:1034400022E02093E9002FEF3091E800215035FD74
:1034500006C035ED3A95F1F700002111F5CF209126
:10346000E80025FF0BC040E050E066E070E00E94FD
:103470005F1C8091E8008E778093E8000895CF93D9
:10348000DF9320911801222339F02091650227FF54
:1034900003C060E222E002C068E021E02093E9007E
:1034A0002FEF3091E800215035FD06C035ED3A95FB
:1034B000F1F700002111F5CF2091E80025FF1DC094
:1034C000EC0180911801811105C040E050E068E0F6
:1034D00070E003C070E040E050E0CE010E945F1C4D
:1034E0008091E8008E778093E80080E2FE01A3E4FB
:1034F000B2E001900D928A95E1F7DF91CF910895A6
:1035000080934002709342026093410280917F0257
:10351000843001F582E08093E9008FEF9091E8001C
:10352000815095FD06C095ED9A95F1F70000811147
:10353000F5CF8091E80085FF0DC040E050E063E0EA
:1035400070E080E492E00E945F1C8091E8008E773A
:103550008093E8000895BC0184E00C94801ABC01BB
:1035600083E00C94801A80917E02811109C00E9430
:10357000F01D0E944D1E8091E20084608093E20065
:10358000089510927E0208950C94421960917B0276
:1035900081E0611101C080E00C942D1990917F02AF
:1035A00081E0943009F080E060917B020C94321944
:1035B00042E061EC81E00E94691D42E261EC82E040
:1035C0000E94691D90917F0281E0943009F080E0B3
:1035D00060917B020C943B1980918102833009F445
:1035E00061C030F4813071F0823009F49AC00895DE
:1035F0008A3009F486C08B3009F46CC0893009F038
:10360000A8C020C080918002813A09F0A2C08091B8
:10361000E800877F8093E800809184029091850282
:10362000892B21F460E283E492E003C060E080E053
:1036300090E070E00E94AA1C8091E8008B77809354
:10364000E800089580918002813209F082C0809163
:10365000840290918502029708F07BC08091E80077
:10366000877F8093E8008091E80082FD05C080910B
:103670007F028111F8CF6DC02091F3008091F2009C
:1036800090E0922B029731F48091F100813011F09B
:10369000863021F48091F100809363028091E800EC
:1036A0008B7753C080918002813A09F052C080919B
:1036B000840290918502892B09F04BC08091E8002B
:1036C000877F8093E8008091E80080FFFCCF8091A5
:1036D000180136C0809180028132D9F58091840230
:1036E00090918502892BA9F58091E800877F8093CE
:1036F000E8000E949E1D80918202809318010C9424
:10370000140780918002813221F58091E800877F43
:103710008093E8000E949E1D809183028093640242
:10372000089580918002813AA1F48091E800877F1A
:103730008093E8008091E80080FFFCCF80916402D4
:103740008093F1008091E8008E778093E8000C94DC
:103750009E1D089584B7877F84BF0FB6F894A895FF
:1037600080916000886180936000109260000FBEBD
:1037700090E080E80FB6F894809361009093610028
:103780000FBE0C943D190E94F01D0E944D1EE2EEEA
:10379000F0E080818460808378940C94E2208CE057
:1037A00091E00C94071880917F028530A9F48091F4
:1037B0007F02853079F40E94451980917D0288232B
:1037C000B1F30E947319882391F30E94491C0E944F
:1037D0001407EDCF0C948819089508950C94F01BEC
:1037E000292F332723303105C9F060F4213031050A
:1037F00081F02230310509F044C08BE390E02EE3E4
:1038000032E043C021323105E1F02232310549F185
:1038100038C082E190E029E732E037C09927813053
:10382000910549F028F0029761F5ECE1F2E005C05E
:10383000EAE3F2E002C0EEE2F2E0849190E09F0160
:1038400024C06115710541F061307105D1F489E042
:1038500090E029E632E019C089E090E020E532E00E
:1038600014C06115710541F06130710551F486EBAA
:1038700090E02BE832E009C080E490E021E433E0FE
:1038800004C080E090E020E030E0FA013183208342
:10389000089580E189BD82E189BD09B400FEFDCFB4
:1038A0008091D8008F7D8093D8008091E000826065
:1038B0008093E0008091E00081FDFCCF0895CF92DD
:1038C000DF92EF92FF920F931F93CF93DF93EC0160
:1038D0008B017A010E94BD1D811133C0E114F104F6
:1038E00039F0F70180819181081B190BC80FD91F8E
:1038F000C12CD12C0115110519F18091E80085FD2D
:1039000016C08091E8008E778093E800E114F104FE
:1039100049F0F70180819181C80ED91ED182C08201
:1039200085E00FC00E94BD1D882321F30AC0899144
:103930008093F10001501109FFEFCF1ADF0ADACFAF
:1039400080E0DF91CF911F910F91FF90EF90DF907A
:10395000CF9008952091860230918702261737076D
:1039600048F06115710539F42091E8002E77209315
:10397000E80001C0B901FC0120E06115710579F191
:1039800080917F028823F1F18530F1F18091E80088
:1039900083FD3CC08091E80082FD2EC08091E8004C
:1039A00080FFEBCF2091F3008091F20090E0922B0A
:1039B0006115710551F08830910538F421912093FB
:1039C000F100615071090196F3CF21E0089709F0E9
:1039D00020E08091E8008E778093E800CECF21111F
:1039E000CFCF0AC080917F02882361F0853061F0DB
:1039F0008091E80083FD0AC08091E80082FFF2CF49
:103A000080E0089582E0089583E0089581E00895BC
:103A100020918602309187022617370748F06115FA
:103A2000710539F42091E8002E772093E80001C059
:103A3000B901FC0120E06115710591F180917F02CF
:103A4000882309F440C0853009F43FC08091E80024
:103A500083FD3DC08091E80082FD2FC08091E80089
:103A600080FFE9CF2091F3008091F20090E0922B4B
:103A70006115710559F08830910540F42491209327
:103A8000F1003196615071090196F2CF21E008975B
:103A900009F020E08091E8008E778093E800CBCF9A
:103AA0002111CCCF0AC080917F02882361F085303C
:103AB00061F08091E80083FD0AC08091E80082FFF8
:103AC000F2CF80E0089582E0089583E0089581E0D8
:103AD0000895982F973068F59093E900981739F07A
:103AE0007091EC002091ED005091F00003C0242F64
:103AF000762F50E021FD02C09F5FECCF3091EB00AC
:103B00003E7F3093EB003091ED003D7F3093ED0030
:103B10003091EB0031603093EB007093EC00209318
:103B2000ED005093F0002091EE0027FDE5CF80E0FE
:103B300008958F708093E90081E00895809180025C
:103B400087FF11C08091E80082FD05C080917F024F
:103B50008111F8CF11C08091E8008B770BC0809164
:103B60007F02882349F08091E80080FFF8CF8091A0
:103B7000E8008E778093E80008952091E40030916A
:103B8000E50095E64091EC00842F817040FF23C052
:103B90008091E80080FD1DC080917F02882399F00C
:103BA000853099F08091EB0085FD11C04091E400D3
:103BB0005091E5002417350729F3915011F09A012F
:103BC000E1CF84E0089582E0089583E0089581E0E4
:103BD000089580E008954091E80042FFDDCF089508
:103BE0000E945E1E0E94661EE0EEF0E08081816011
:103BF0008083E8EDF0E080818F77808319BCA7EDAA
:103C0000B0E08C918E7F8C9380818F7E8083109228
:103C10007E0208950F931F93CF93DF930E945E1E41
:103C20000E94661EC8EDD0E088818F7788838881E6
:103C30008068888388818F7D888319BC10927F0279
:103C400010927B0210927D0210927C0200EE10E036
:103C5000F80180818B7F808388818160888342E046
:103C600060E080E00E94691DE1EEF0E080818E7FDF
:103C70008083E2EEF0E080818160808380818860D3
:103C80008083F80180818E7F808388818061888332
:103C9000DF91CF911F910F910895E8EDF0E08081C1
:103CA0008F7E8083E7EDF0E080818160808384E017
:103CB00082BF81E080937E020C940A1EE8EDF0E062
:103CC00080818E7F80831092E20008951092DA0046
:103CD0001092E10008951F920F920FB60F921124D7
:103CE0002F933F934F935F936F937F938F939F9304
:103CF000AF93BF93EF93FF938091E10082FF0BC0DE
:103D00008091E20082FF07C08091E1008B7F809369
:103D1000E1000E94E1208091DA0080FF1FC08091C5
:103D2000D80080FF1BC08091DA008E7F8093DA007C
:103D30008091D90080FF0DC080E189BD82E189BDFD
:103D400009B400FEFDCF81E080937F020E94B31A88
:103D500005C019BC10927F020E94C11A8091E10037
:103D600080FF19C08091E20080FF15C08091E200C1
:103D70008E7F8093E2008091E20080618093E20078
:103D80008091D80080628093D80019BC85E0809330
:103D90007F020E94C61A8091E10084FF30C08091AA
:103DA000E20084FF2CC080E189BD82E189BD09B4B5
:103DB00000FEFDCF8091D8008F7D8093D800809148
:103DC000E1008F7E8093E1008091E2008F7E8093FE
:103DD000E2008091E20081608093E20080917B02AA
:103DE000882311F084E007C08091E30087FD02C0C2
:103DF00081E001C083E080937F020E94CE1A80910F
:103E0000E10083FF29C08091E20083FF25C08091FB
:103E1000E100877F8093E10082E080937F0210922F
:103E20007B028091E1008E7F8093E1008091E2002F
:103E30008E7F8093E2008091E20080618093E200B7
:103E400042E060E080E00E94691D8091F00088609F
:103E50008093F0000E94C41AFF91EF91BF91AF913F
:103E60009F918F917F916F915F914F913F912F9192
:103E70000F900FBE0F901F9018951F920F920FB6C4
:103E80000F9211242F933F934F935F936F937F93E0
:103E90008F939F93AF93BF93CF93DF93EF93FF9352
:103EA000C091E900CF708091EC00D82FD17080FDD7
:103EB000D0E81092E9008091F000877F8093F000B5
:103EC00078940E94811F1092E9008091F000886030
:103ED0008093F000CD2BCF70C093E900FF91EF915C
:103EE000DF91CF91BF91AF919F918F917F916F9112
:103EF0005F914F913F912F910F900FBE0F901F90A8
:103F000018951F93CF93DF93CDB7DEB7AA970FB65F
:103F1000F894DEBF0FBECDBFE0E8F2E08091F10083
:103F2000819322E0E838F207C9F70E94EC1A8091E9
:103F3000E80083FF2EC18091800290918102492F79
:103F400050E04A30510508F024C1FA01EC58FF4F07
:103F50000C941121803821F0823809F01AC108C070
:103F600080917C0290917D02992389F082600FC03C
:103F7000809184028F70873008F00BC18093E90034
:103F80008091EB0085FB882780F91092E9009091E1
:103F9000E800977F9093E8008093F1001092F10081
:103FA000D1C0282F2D7F09F0F4C0882319F082306A
:103FB00061F0EFC080918202813009F0EAC0933055
:103FC00009F080E080937D022EC0809182028111F1
:103FD0002AC0809184028F702FEF280F263008F0BE
:103FE000D8C08093E9002091EB0020FF1CC09330E3
:103FF00021F48091EB00806214C09091EB009061FD
:104000009093EB0021E030E0A90102C0440F551F5E
:104010008A95E2F74093EA001092EA008091EB0063
:1040200088608093EB001092E9008091E800877F20
:104030008093E8000E949E1DACC08111AAC010911F
:1040400082021F778091E3008078812B8093E300C8
:104050008091E800877F8093E8000E949E1D8091F8
:10406000E80080FFFCCF8091E30080688093E3004C
:10407000111102C082E001C083E080937F0289C0F9
:104080008058823008F085C080918202909183022E
:104090008C3D53E0950779F583E08A838AE2898332
:1040A0004FB7F894DE01139620E03EE051E2E32F93
:1040B000F0E050935700E49120FF03C0E295EF70C9
:1040C0003F5FEF708E2F90E0EA3010F0C79601C08E
:1040D000C0968D939D932F5F243149F74FBF8091F8
:1040E000E800877F8093E8006AE270E0CE010196E5
:1040F0000E94AA1C16C06091840270918502AE01D4
:104100004F5F5F4F0E94EE1BBC01892B09F441C039
:104110009091E800977F9093E80089819A810E94AE
:10412000081D8091E8008B778093E80032C08038CA
:1041300081F58091E800877F8093E80080917B0281
:104140008093F1008091E8008E7772CF811121C0B9
:10415000809182029091830299270297D4F48091F2
:10416000E800877F8093E8008091820280937B0241
:104170000E949E1D80917B02811106C08091E30008
:1041800087FD02C081E001C084E080937F020E942D
:10419000D81A8091E80083FF0AC08091E800877FE9
:1041A0008093E8008091EB0080628093EB00AA96F8
:1041B0000FB6F894DEBF0FBECDBFDF91CF911F9138
:1041C00008950895CF9380917F028823A1F0C09134
:1041D000E900CF709091EC00892F817090FD80E80C
:1041E000C82B1092E9008091E80083FD0E94811F96
:1041F000CF70C093E900CF91089597FB072E16F476
:10420000009407D077FD09D00E94172107FC05D044
:104210003EF4909581959F4F0895709561957F4FDD
:104220000895EE0FFF1F0590F491E02D0994AA1B4D
:10423000BB1B51E107C0AA1FBB1FA617B70710F091
:10424000A61BB70B881F991F5A95A9F780959095C3
:10425000BC01CD010895FB01DC0104C08D910190EA
:10426000801921F441505040C8F7881B990B0895DC
:10427000F999FECF92BD81BDF89A992780B508952E
:10428000A8E1B0E042E050E00C946C21262FF999AF
:10429000FECF92BD81BDF89A019700B4021639F0A5
:1042A0001FBA20BD0FB6F894FA9AF99A0FBE089576
:1042B0000396272F0E9447210E944621252F0E9406
:1042C0004721242F0C9447210196272F0E94472134
:1042D0000C944621DC01CB01FC01F999FECF06C00C
:1042E000F2BDE1BDF89A319600B40D9241505040B4
:0842F000B8F70895F894FFCF20
:1042F800C800EF012808641E140A321E1C1A3F1A4F
:10430800201AAF1AAB1A1F1A01E200E900EA00B539
:1043180000B600B700CD008301CC008A0192019459
:10432800012102230224022502260227022A02B3BF
:1043380000B4006F007000818283E200E900EA00A7
:10434800B500B600B700CD008301CC008A01920108
:1043580094012102230224022502260227022A02AE
:10436800B300B4006F00700081828397C63435367D
:0C437800323331F7F6F5F4939291940083
:00000001FF
