:100000000C94DF010C94FC010C94FC010C94FC0199
:100010000C94FC010C94FC010C94FC010C94FC016C
:100020000C94FC010C94FC010C94BE1D0C94901ECD
:100030000C94B0180C94FC010C94FC010C94FC0181
:100040000C94FC010C94FC010C94FC010C94FC013C
:100050000C94FC010C9438190C94FC010C94FC01D8
:100060000C94FC010C94FC010C94FC010C94FC011C
:100070000C94FC010C94FC010C94FC010C94FC010C
:100080000C94FC010C94FC010C94FC010C94FC01FC
:100090000C94FC010C94FC010C94FC010C94FC01EC
:1000A0000C94FC010C94FC010C94FC01AC04AC0419
:1000B000D804D80440055E05760676066905020672
:1000C00013061306FD1E241F1C20241F1C20701F56
:1000D000931F1C20EA1FF91F290014001A000800B2
:1000E000150017001C0018000C00120013002A0055
:1000F0002B0004001600070009000A000B000D0089
:100100000E000F0033003400E1001D001B0006004C
:1001100019000500110010003600370052002800B9
:100120000351E000E200E30001512C002C000251D9
:100130003800500051004F0035001E001F00200005
:1001400021002200230024002500260027000100B2
:100150000100010001000100010001002D002E003E
:100160002F00300033003400E100010001000100E5
:1001700001000100010031003600370001000100DC
:100180000100E000E200E30001002C002C0002511D
:10019000380001000100010035021E021F0220028A
:1001A00021022202230224022502260227022A001B
:1001B0003A003B003C003D003E003F002D022E0275
:1001C0002F0230023302340240004100420043005B
:1001D00044004500010031023602370201000100EF
:1001E0000100E000E200E300015101000100010014
:1001F000380201000100010001000100ED000100D2
:1002000001000100F90001000100010001000100EE
:100210000100EF00EE00F0000100FB00FA00FC001E
:10022000F100F200F3000100E10001000100010013
:10023000FD00FE00FF0001000100010001000100BF
:100240000100E000E200E300015101000100025161
:1002500001000100010001001003700065006E0044
:100260006B0065007300750000000A035000650014
:100270006E006B0000000403090409023B00020148
:1002800000A0FA0904000001030101000921110185
:100290000001224000070581030800010904010054
:1002A000010300000009211101000122B600070529
:1002B00082032000011201000200000008EDFE6030
:1002C0006001000102000105010902A10185020986
:1002D00001A10005091901290815002501950875D6
:1002E0000181020501093009311581257F950275CB
:1002F00008810609381581257F9501750881060555
:100300000C0A38021581257F950175088106C0C049
:1003100005010980A101850319012AB700150126ED
:10032000B700950175108100C0050C0901A1018578
:100330000419012AA002150126A002950175108159
:1003400000C005010906A1018506050719E029E796
:10035000150025019508750181020507190029EF8F
:100360001500250195F0750181020508190129057F
:10037000950575019102950175039101C00501096B
:1003800006A101050719E029E71500250195087563
:100390000181029501750881010507190029FF15E2
:1003A0000026FF009506750881000508190129053A
:1003B000950575019102950175039101C000112405
:1003C0001FBECFEFDAE0DEBFCDBF11E0A0E0B1E0AD
:1003D000EEE9F1E402C005900D92AC38B107D9F70F
:1003E00022E0ACE8B1E001C01D92A73AB207E1F704
:1003F0000E9481120C94CD200C94000081E008959D
:1004000081E008950C94000208950C9404021F9357
:10041000CF93DF9300D000D01F92CDB7DEB74983D2
:100420005A836B8330918F0189819A81311114C075
:10043000662359F0222349F00E94B308182F682F31
:1004400089819A810E945C0803C00E948708182F46
:1004500069817A81812F04C00E94B30869817A8101
:100460000F900F900F900F900F90DF91CF911F91F1
:100470000C94E90FFC01262F408151816281738128
:1004800084810C94070281E00895CF93DF93EC01FF
:1004900060E00E943A02BE01DF91CF910C94050208
:1004A0000C9432110C942E1108950E9406070E949C
:1004B00054022FEF84E39CE0215080409040E1F70C
:1004C00000C000000C945E190F931F93CF93DF932D
:1004D0008C0161E00E943A02EC01B8010E94020224
:1004E0008823F1F1B801CE010E94FB168823C1F1E7
:1004F000B801CE010E940F15882391F1B801CE01F9
:100500000E945716882361F1F8018281882309F13E
:10051000CB358DE5D807C1F050F4C115FCE5DF07F8
:1005200081F0CF3DDC45A9F40E94EA0D19C0CC351D
:10053000EDE5DE0761F0CD35DD4559F40E942D0D66
:1005400008C00E9455020CC00E94360D02C00E94D5
:10055000390DC801DF91CF911F910F910C94FE01CD
:1005600080E0DF91CF911F910F9108950E94921822
:100570000C94CF020E94D2020C94981808950C9407
:10058000BE0281E008950C94C1020895CF93C82F54
:100590000E94BF028C2F0E94C302CF91089580E079
:1005A0000C94C6020E9457170C94C6020E9457175B
:1005B00090918E01891721F080938E010C94C602D0
:1005C0000895CF93DF93CDB7DEB72B970FB6F8948E
:1005D000DEBF0FBECDBF4F83588769877A878B8771
:1005E00061110E94790C9E012F5F3F4F86E0F90157
:1005F00011928A95E9F785E0FE013796D9010190BD
:100600000D928A95E1F789819A814C815D81452B14
:1006100031F09F3F31F491E08F3F19F403C091E036
:1006200001C090E090FF09C049815A816B817C81B3
:100630008D819E810E949A0B05C0C9010E944302D0
:100640008111F2CF2B960FB6F894DEBF0FBECDBF4F
:10065000DF91CF910895FC01808191810E94F5087E
:100660000895CF93882309F4A4C0C82F8238C1F419
:100670000E94571781FD9DC069E38091020190910E
:1006800003010E944D180E949B0C2FEF81EE94E015
:10069000215080409040E1F700C0000069E319C09C
:1006A000833801F50E94571780FD83C063E5809170
:1006B0000201909103010E944D180E949B0C2FEFA4
:1006C00081EE94E0215080409040E1F700C00000AE
:1006D00063E580910201909103010E945818CF9127
:1006E0000C949B0C8438C1F40E94571782FD61C0A2
:1006F00067E480910201909103010E944D180E94CD
:100700009B0C2FEF81EE94E0215080409040E1F768
:1007100000C0000067E4DDCF8CEF8C0F813AD0F48D
:100720006C2F80910201909103010E94CD178823C4
:1007300049F06C2F80910201909103010E9458189A
:100740000E949B0C6C2F80910201909103010E94EA
:100750004D18C5CF80E28C0F883048F4C77081E017
:1007600001C0880FCA95EAF70E945C0CB8CFEBE590
:10077000EC0FE33040F4F0E0E95BFE4F808190E065
:10078000CF910C948B17E8E5EC0FE73150F4F0E0D3
:10079000EE0FFF1FE75EFE4F80819181CF910C9499
:1007A000A117CD3E30F08C2F0E94FE12CF910C94F9
:1007B000D013CF910895882309F464C0823879F466
:1007C0000E94571781FF5EC069E3809102019091FA
:1007D00003010E944D180E949B0C69E310C08338EE
:1007E000B1F40E94571780FF4DC063E5809102016C
:1007F000909103010E944D180E949B0C63E580912B
:100800000201909103010E9458180C949B0C8438AB
:1008100079F40E94571782FF35C067E48091020186
:10082000909103010E944D180E949B0C67E4E7CF52
:100830009CEF980F913A10F4682FE1CF90E2980F57
:10084000983050F4877091E001C0990F8A95EAF7CB
:10085000892F0E94620CD9CF9BE5980F933020F42A
:1008600080E090E00C948B1798E5980F973120F476
:1008700080E090E00C94A1178D3E20F00E94591367
:100880000C94D01308951F93CF93DF93182FEB018F
:100890000E943103209741F08FE99FE00197F1F723
:1008A00000C000002197F6CF812FDF91CF911F91DB
:1008B0000C94DB03893319F060E070E002C060E55E
:1008C00070E00C944304882321F00E945C0C0C948B
:1008D0009B0C0895882321F00E94620C0C949B0CC1
:1008E0000895CF92DF92EF92FF920F931F93CF93D1
:1008F000DF937C01D62FC72FFC0112810581029561
:100900000F700E94520C8823B9F01123A9F08C2F8C
:10091000807F803421F080E28D0F883068F08091F4
:10092000850282FD09C082E00E94FB0C0E94520CED
:1009300091E0D82ED92601C0D12CCC2EC2948FE0C4
:10094000C8228C2D90E08C30910508F0CFC1FC01BD
:10095000EA5AFF4F0C9464208C2F807FCF7088233D
:1009600011F0C295C07F112399F0CC2309F4AAC1DC
:1009700080E28D0F883010F0D11104C08C2F0E94BE
:100980005C0C03C08C2F0E946C0C0E949B0C9AC1C3
:100990008D2F0E94DB03CC2309F4A8C180E28D0FC8
:1009A000883038F1DD2329F18C2F0E94720C24C08D
:1009B0008C2F807FCF70803211F0C295C07FDD23F5
:1009C00019F0D130A1F13DC08091850282FF17C09E
:1009D000112349F0CC2329F08C2F0E945C0C0E943B
:1009E0009B0C80E070C180E00E94DB03CC2309F403
:1009F0007DC18C2F0E94620C0E949B0C77C1112339
:100A000071F0002341F0013031F40E947C0C8C2BFA
:100A10000E94840C6BC10E947C0C8C2B1DC0002397
:100A200019F0013009F462C10E94910C25C0112314
:100A300021F0063008F05AC10EC0053008F056C14A
:100A40001BC0112361F0002331F0F701858180FF85
:100A500039C18F7085838C2F0E94630447C10023A6
:100A600059F0D93309F03FC1FFEF07EE13E0F15021
:100A700000401040E1F735C18C2F0E946A0436C156
:100A80008C2F86958695837019F0813061F02EC188
:100A9000112321F08D2F9C2F937002C080E090E0F5
:100AA0000E948B172BC1112321F08D2F9C2F937047
:100AB00002C080E090E00E94A11720C18D2F112379
:100AC00019F00E94FE1202C00E9459130E94D01316
:100AD00015C18C2F837009F047C011110BC12D2F48
:100AE000229526952770220F220F6D2F6F70862F6B
:100AF00090E0A0E0B0E0022E04C0880F991FAA1F6A
:100B0000BB1F0A94D2F7D4FF10C04FE050E060E062
:100B100070E004C0440F551F661F771F2A95D2F757
:100B2000409550956095709503C040E050E0BA0143
:100B3000C695C695C3708A019B01082B192B2A2BD9
:100B40003B2BC901B801C23049F058F4C13019F04B
:100B50000E947207CFC00E946007CCC00E94840729
:100B6000C9C00E945E07C6C0112319F08C2F817086
:100B700001C08695882309F4BDC02D2F22952695A6
:100B80002770220F220F6D2F6F70862F90E0A0E04C
:100B9000B0E0022E04C0880F991FAA1FBB1F0A9441
:100BA000D2F7D4FF10C04FE050E060E070E004C026
:100BB000440F551F661F771F2A95D2F74095509511
:100BC0006095709503C040E050E0BA01C695C695A7
:100BD000C3708A019B01082B192B2A2B3B2BC901BF
:100BE000B801C23049F058F4C13019F00E943708FA
:100BF00081C00E9425087EC00E9449087BC00E94D7
:100C0000980778C0CF70112339F08C2F0E94BE074F
:100C10008D2F0E9463046EC08D2F0E946A048C2F5A
:100C20000E94DF0767C0D23F21F128F4D03F41F096
:100C3000D13FC1F043C0D33F19F1D43F79F03EC05A
:100C4000112341F0053008F051C08C2F8F710E94A4
:100C500004084CC0063008F049C0F7CF80918502E7
:100C600082FF18C0112339F08C2F8F710E94BE07AC
:100C70003DC01123C9F38C2F8F710E94DF0736C04E
:100C8000112329F08C2F8F710E94A9072FC00E9479
:100C9000A4072CC0112349F0CF718C2F0E94BE07EE
:100CA00063E08C2F0E94E00C21C081E00E94FB0CCD
:100CB0000230E0F082E00E94FB0C18C0112331F0FA
:100CC000002391F28D2F0E94310310C0002399F26E
:100CD000D93349F41FEF27EE33E011502040304064
:100CE000E1F700C000008D2F0E94DB0388EF8C0D20
:100CF000843020F40E9457170E94C602DD20C9F0FC
:100D00000E944E0C80FD15C0F70112820E94480C13
:100D10000E94BE07C7010E94BA060E94480CDF91DC
:100D2000CF911F910F91FF90EF90DF90CF900C9497
:100D3000DF07DF91CF911F910F91FF90EF90DF9030
:100D4000CF9008950F931F93CF93DF93EC016881A9
:100D500079818A810E9400098C010E945B080E94AF
:100D60004C07B801CE010E947104DF91CF911F9111
:100D70000F910895CF93DF93EC01988189812B81A6
:100D80003C81232B31F08F3F31F481E09F3F19F4F8
:100D900003C081E001C080E080FD1DC0CE010E9443
:100DA0006402811110C00E94520C8823A1F08A8134
:100DB000882389F08091850282FD0DC082E0DF9159
:100DC000CF910C94FB0CCE010E94A206CE01DF91C4
:100DD000CF910C944502DF91CF91089580E090E08F
:100DE0000E948B1780E090E00E94A1170E94790C6E
:100DF0000E949B0C0E9401150C94D013809102015B
:100E0000909103010E9463180C94EE060E94690CF5
:100E10000C94FE0692959F70963079F010F49250E3
:100E200001C09A50923068F4803F69F018F4883E0F
:100E300040F409C0843F29F406C0883E20F0813F79
:100E400011F080E0089581E00895FC018081918196
:100E50000E94F5080E940A070895CF93DF9300D0FF
:100E600000D01F92CDB7DEB70F900F900F900F906C
:100E70000F90DF91CF910895CF93DF9300D000D0F2
:100E800000D0CDB7DEB726960FB6F894DEBF0FBE02
:100E9000CDBFDF91CF910895089508950C944D072B
:100EA0000C944E070E9450076093B2017093B301F7
:100EB0008093B4019093B5010C94EE060C94520704
:100EC0000F931F930091B2011091B3012091B401CF
:100ED0003091B501602B712B822B932B1F910F91B9
:100EE0000C9452070F931F930091B2011091B3011C
:100EF0002091B4013091B5016023712382239323A3
:100F00001F910F910C9452070F931F930091B20100
:100F10001091B3012091B4013091B5016027712780
:100F2000822793271F910F910C9452070C944D0721
:100F30000E9496076093AE017093AF018093B00159
:100F40009093B1010C94EE0660E070E0CB010C943C
:100F500098070F931F9341E050E060E070E08A0132
:100F60009B0104C0000F111F221F331F8A95D2F767
:100F7000C901B8011F910F910C9498070F931F930B
:100F800041E050E060E070E004C0440F551F661F70
:100F9000771F8A95D2F78091AE019091AF01A09111
:100FA000B001B091B1018A019B01082B192B2A2BAA
:100FB0003B2BC901B8011F910F910C9498070F9317
:100FC0001F9341E050E060E070E004C0440F551F03
:100FD000661F771F8A95D2F740955095609570955A
:100FE0008091AE019091AF01A091B001B091B1019B
:100FF0008A019B01082319232A233B23C901B80135
:101000001F910F910C9498070F931F9341E050E0AC
:1010100060E070E004C0440F551F661F771F8A957B
:10102000D2F78091AE019091AF01A091B001B09143
:10103000B1018A019B01082719272A273B27C901EB
:10104000B8011F910F910C9498070F931F93009173
:10105000AE011091AF012091B0013091B101602B30
:10106000712B822B932B1F910F910C9498070F9348
:101070001F930091AE011091AF012091B00130910A
:10108000B10160237123822393231F910F910C944C
:1010900098070F931F930091AE011091AF0120911B
:1010A000B0013091B10160277127822793271F91EA
:1010B0000F910C94980708952CE0929F800D1124B5
:1010C000E82FE695E695E695877051E001C0550F4B
:1010D0008A95EAF785E0E89FF0011124E057FE4F7A
:1010E00020E030E070E04081CB01022E02C09695F6
:1010F00087950A94E2F78170819584278523842758
:1011000081932F5F3F4F2530310569F708952CE01B
:10111000929F800D1124682F669566956695982F8D
:10112000977085E0689FB001112440E050E080E0B6
:10113000FB01E40FF51FE057FE4F208130E0092E40
:1011400002C0369527950A94E2F721703327042EC2
:1011500001C0220F0A94EAF7822B4F5F5F4F4530A0
:10116000510531F70895BF92CF92DF92EF92FF922F
:101170000F931F93CF93DF938C01C090AE01D0905B
:10118000AF01E090B001F090B1018091B201909177
:10119000B301A091B401B091B501C82AD92AEA2AB5
:1011A000FB2ACFE1D0E0D701C6010C2E04C0B695D2
:1011B000A795979587950A94D2F780FD04C021974B
:1011C00090F7B12C07C0BC2EB8018C2F0E94FC0FE9
:1011D0000197A9F38B2DDF91CF911F910F91FF9074
:1011E000EF90DF90CF90BF900895CF93DF93EC0105
:1011F0000E94B308BE010E94FC0FDF91CF910895B9
:101200001F93CF93DF93EB0190918F01992321F0EE
:10121000CB010E94F50813C0882349F0CB010E943E
:10122000B308182F682FCE010E945C0804C0CB01C0
:101230000E948708182FBE01812F0E94FC0FDF91AA
:10124000CF911F9108951F93CF93DF93C091B60163
:1012500016E08091B701C81799F0D0E01C9FF0010B
:101260001D9FF00D1124E854FE4F40815181628191
:101270007381848195810E943C072196C770E9CFD4
:10128000DF91CF911F9108954091E8015091E901BC
:101290006091EA017091EB018091EC019091ED0178
:1012A0000C943C07EF92FF920F931F93CF93DF9321
:1012B0008091ED0182958F7009F065C08091EA01FF
:1012C000882309F460C08091B601F090B7011091B5
:1012D000E8010091E9016091EB017091EC0191E06E
:1012E0001F3F09F090E0C0910001D0910101292F2A
:1012F00096E0E92E8F1509F446C06115710521F0BD
:101300000F3F21F030E003C031E001C0322F90E008
:1013100030FD36C0E89EF001E99EF00D1124DF019A
:10132000A854BE4F11963C911197301329C03C919F
:10133000311326C012963C911297311121C0139699
:101340004D915C911497461B570B4C175D07C0F4E9
:101350008091ED018F7080618093ED01E354FE4F29
:1013600080818F708061808388EE91E00E94BA0650
:10137000DF91CF911F910F91FF90EF900C94230973
:1013800001968770B7CFDF91CF911F910F91FF909A
:10139000EF9008959F92AF92BF92CF92DF92EF921B
:1013A000FF920F931F93CF93DF93CDB7DEB7619773
:1013B0000FB6F894DEBF0FBECDBF8C0185E0F801FB
:1013C000DE011D9601900D928A95E1F7D8011296E3
:1013D000EC909091E801E091E9012091EB013091CE
:1013E000EC012115310531F0EF3F31F481E09F3FF1
:1013F00019F403C081E001C080E0B82FB1709B2ECA
:1014000080FD47C1D8014C9111965C9111971396BC
:10141000AD90BC90149788EEC82E81E0D82EF09045
:10142000EA01B501621B730B2091000130910101AB
:10143000FF2009F4D9C08091ED016217730708F00D
:1014400095C0282F207F09F052C05E1313C04913A6
:1014500011C0FE2CE1100EC08F7080618093ED01F1
:101460000E944409C6010E94BA068091ED01F8016C
:1014700085834DC1AB2831F05F3F31F481E04F3FB0
:1014800019F403C081E001C080E080FD03C081E069
:101490008E2502C080E090E0F82FF170FF2E80FFD3
:1014A0001CC08091B6012091B70136E0821709F483
:1014B0000BC190E0389FF001399FF00D1124E854E2
:1014C000FE4F6181561306C06081461303C06281DE
:1014D000E61203C001968770E9CFFE2CEE2009F4D6
:1014E00016C18091ED0181608093ED0154C05E13BF
:1014F00006C0491304C0E11002C0F80199C0C80138
:101500000E942507882361F1EE2051F12091ED0121
:10151000822F82958F7090E0029774F08091E8019D
:101520009091E90198878F831986BB86AA862C87BC
:10153000CE0107960E94BA0686E0F801A8EEB1E057
:1015400001900D928A95E1F70E9452090E94440988
:101550000AC05E1711F1C8010E94250781112CC035
:10156000C8010E94BA06FF24F394D1C0282F207F1F
:1015700081F77A2DB98AA88A6E2D89890E942D0754
:1015800088EE91E00E94BA0686E0D6011D928A9507
:10159000E9F70E944409F12CBAC04913DCCFE110ED
:1015A000DACFF8018583C8010E94BA0686E0D60129
:1015B0001D928A95E9F7ABC0EE2091F22091ED01E2
:1015C000822F82958F7090E002970CF4B5CF8091B6
:1015D000E8019091E9019A8389831B82BD82AC82E4
:1015E0002E83CE010196A6CF6217730708F044C080
:1015F000FE2CEE2009F4B4CF5E1330C049132EC088
:101600002091ED0120FD21C0822F82958F70482FFF
:1016100050E041155105C9F0F80125834F305105BF
:1016200041F08F5F982F9295907F822F8F70892B3A
:101630008583C8010E94BA0686E0F801A8EEB1E0F1
:1016400001900D928A95E1F73CC086E0F801A8EE82
:10165000B1E001900D928A95E1F759C0C8010E944E
:101660002507811169CF8091ED0181608093ED01A3
:10167000C8010E94BA064BC07A2DB98AA88A6E2D7D
:1016800089890E942D0786E0D6011D928A95E9F787
:1016900018C0EE2009F464CFC8010E942507F82E77
:1016A000882309F45DCF86E0F801A8EEB1E001904F
:1016B0000D928A95E1F788EE91E00E942B030E943B
:1016C00052090E94440923C04D875E878D859E85FF
:1016D0000E94F508292F22952F70223028F49F7040
:1016E00039F0811105C00BC0243028F49F7049F4F3
:1016F000805E883020F0C8010E94BA069F2CF92C29
:1017000006C0D80115969C91907F91F7F8CF8F2D48
:1017100061960FB6F894DEBF0FBECDBFDF91CF91BB
:101720001F910F91FF90EF90DF90CF90BF90AF90FF
:101730009F9008951F93CF93DF93CDB7DEB72C977B
:101740000FB6F894DEBF0FBECDBF4F8358876987B1
:101750007A878B879C87CE0107960E94CA098823C7
:10176000D1F09F8188852A853B85232B31F08F3FDF
:1017700031F481E09F3F19F403C081E001C080E0B3
:1017800080FD47C04F81588569857A858B859C850A
:101790000E943C073EC086E0FE013796DE011196AE
:1017A00001900D928A95E1F7FF81E8856A857B8536
:1017B0006115710531F0EF3F31F481E0FF3F19F41D
:1017C00003C081E001C080E080FD23C02091B7010B
:1017D00030E0C9010196877099274091B60150E029
:1017E00084179507F1F1F983EA837D836C8396E092
:1017F000929FD001939FB00D1124A854BE4FFE01BB
:10180000319601900D929A95E1F78093B7010E946D
:10181000230916E08091B6019091B701891771F103
:10182000189FC001112488549E4F0E94CA09882322
:1018300029F1E091B6011E9FF0011124E854FE4FFA
:101840004081518162817381848195810E943C072E
:101850008091B60190E00196877099278093B60138
:10186000D9CF0E9406071092B7011092B601E8EE98
:10187000F1E086E0DF011D928A95E9F72C960FB61C
:10188000F894DEBF0FBECDBFDF91CF911F910895B9
:1018900080910E02859585958595089580910E021B
:1018A0008770089590910E02977081E009F480E0AE
:1018B000089580913102089590913102892B80938F
:1018C00031020895809590913102892380933102ED
:1018D000089510923102089590913002892B8093DF
:1018E00030020895809590913002892380933002D0
:1018F000089510923002089580910F02089508957E
:101900000C947F0C0C94800C9091850292FD08C081
:1019100090910F02981721F080930F020C94820C83
:10192000089580910F02882329F010920F0280E021
:101930000C94820C0895CF93DF93E0910201F09113
:101940000301809131028083E0910201F091030153
:10195000908180913002892B808380910F028823AF
:1019600081F0E0910201F09103019081892B808345
:1019700080910201909103010E94B71781110E948A
:10198000910CC0910201D091030140E250E06EEE53
:1019900071E0CE010E947E20892B69F080E2FE0179
:1019A000AEEEB1E001900D928A95E1F7CE01DF91A4
:1019B000CF910C946317DF91CF9108950C947F0C15
:1019C0009091850292FD10C098E0899F90011124AA
:1019D000262B20930E020E94BE0780910E02859551
:1019E000859585950C94DE0C0C94BE0710920E0222
:1019F00080E00C94DE0C20910E028095822380936F
:101A00000E02982F977099F430E0482F082E000CA2
:101A1000550B2417350759F09091850292FD07C0A8
:101A20008595859585950E94DF070C94F60C0895A1
:101A30009091850292FB222720F9281769F080FBFC
:101A400092F99093850280918402909185020E9480
:101A5000660D82E00C94FB0C08958091850282FB58
:101A6000882780F991E089270C94180D81E00C9467
:101A7000180D80E00C94180D6FEF7FEF80E090E080
:101A80000C94B72080E090E00E94932021E0893EF2
:101A90009E4F09F020E0822F089582E090E00C94A0
:101AA0008B2083E090E00C948B20CF9384E090E037
:101AB0000E948B20C82F82E290E00E948B202C2F66
:101AC00030E0A901582BCA01CF910895CF93C92FB7
:101AD000682F84E090E00E9499206C2F82E290E0D1
:101AE000CF910C949920AB01BC018FE090E00C9455
:101AF000AB20AB01BC0183E190E00C94AB2060E033
:101B000070E0CB010C94790D60E070E0CB010E9495
:101B1000730D0C947F0D69EE7EEF80E090E00E94E3
:101B2000B72060E082E090E00E94992060E083E0CE
:101B300090E00E9499201092B2011092B30110928D
:101B4000B4011092B50160E084E090E00E94992019
:101B500060E082E290E00E94992060E085E090E001
:101B60000E94992060E086E090E00E9499206FEF4B
:101B700087E090E00E94992040E050E0BA0188E0C0
:101B800090E00E94AB2060E08DE090E00E94992000
:101B900040E050E0BA0188E190E00E94AB2060E0B4
:101BA00087E190E00E94992040E050E0BA018CE18A
:101BB00090E00E94AB2060E070E080E290E00E9444
:101BC000B72040E050E0BA0188E190E00E94AB20ED
:101BD0000C94840D0C948B0D682F8EE090E00C9487
:101BE00099200E941D1960933E0270933F028093DA
:101BF00040029093410260933A0270933B028093BB
:101C00003C0290933D02089585B7806885BF85B7F3
:101C1000806885BF089581E008950C940B0E0895A7
:101C20000C940F0E0C940F0E0C94120E0C940F0EBD
:101C30000C94160E0C940F0E0E94040E88ED90E189
:101C40000E944D170E941A0E0C94180E0E94100E3E
:101C50000C940F0E0E94F5100C94C5020E940819F6
:101C60000E94DA110E942A0E0C94140E5F926F9259
:101C70007F928F929F92AF92BF92CF92DF92EF921C
:101C8000FF920F931F93CF93DF93CDB7DEB72A97C1
:101C90000FB6F894DEBF0FBECDBF0E94EF11C82E65
:101CA00081110E94F10D32E3832E32E0932E00E089
:101CB00010E0502E802F0E9419115C01F4016190F8
:101CC00071904F016826792661147104B1F40F5F99
:101CD0001F4F0430110569F78FEF89838A831B82B8
:101CE0000E9411198160782F9D838C8349815A81CC
:101CF0006B818D810E94E1023AC08091420281FD98
:101D00000E942211D12CEE24E394F12CC3018E21E8
:101D10009F21892B29F10E940D0E8823A9F0DE82D4
:101D20005F82AE20BF2081E0AB2809F480E0888785
:101D30000E9411198160782F9A8789874E815F816F
:101D400068858A850E94E102000F111FF801EE5C90
:101D5000FD4F80819181E826F926F182E08207C05B
:101D6000D394EE0CFF1CFCE0DF12D0CFB0CF81E0AB
:101D7000C11001C080E02A960FB6F894DEBF0FBEF6
:101D8000CDBFDF91CF911F910F91FF90EF90DF902A
:101D9000CF90BF90AF909F908F907F906F905F900B
:101DA00008950E94360E0E94EE130C94D602CF9333
:101DB000DF930E940110EC01811521E5920708F0E4
:101DC00045C0811530E5930708F094C0883E910521
:101DD00028F5803E910508F0F8C0883A910570F426
:101DE000853A910508F07CC08130910509F475C0F1
:101DF00008F4E8C0049708F0E8C0E4C08F3B910500
:101E000008F0E0C0C85AD0E0CC0FDD1FC65BDE4F43
:101E10000990D881C02DCE019464D8C0811540E2CC
:101E2000940758F4811551E0950708F0CEC08D3E17
:101E3000910508F4C7C09065C9C0C11580E4D807F2
:101E400008F4C0C0DF70CE01906AC0C0811525E5DE
:101E50009207A8F4811534E5930708F095C0811521
:101E600043E5940708F07BC0811552E5950708F01B
:101E700061C0D82FCC27CE01816F906AA7C0C11551
:101E800089E5D807A0F4C11528E5D20708F082C07B
:101E9000C11536E5D30708F095C08C2F0E94951028
:101EA0008F7190E0D82FCC27CE0190628FC0C115E2
:101EB0004AE5D40708F474C0CE01905681159042CB
:101EC00008F080C08D2F8F710E949510DD27D062A1
:101ED0008F71AE01582BCA0179C081E090E076C0C5
:101EE000C55AD0E0C858DE4F8881C82FD0E0CE0157
:101EF00090646CC074E0969587957A95E1F7282FE9
:101F000023703C2F337081E090E002C0880F991F4E
:101F10003A95E2F79C68AC01522B9A019C2F9F7076
:101F20009695969550E2959FE0011124C9018C2B5E
:101F30009D2B4CC08370992721E030E002C0220F16
:101F4000331F8A95E2F79C2F9695969580E2989F8D
:101F5000E0011124C22BD32BCE019C6837C08370C3
:101F6000992721E030E002C0220F331F8A95E2F763
:101F70009C2F9695969540E2949FE0011124C22BE8
:101F8000D32BCE019A6822C0D82FCC27CE01846FE4
:101F9000906A1CC0DC2FCC27CE01806F906A16C0DF
:101FA0008C2F8F700E94951094E0D695C7959A95C6
:101FB000E1F7CF70D0E0DC2FCC27D0699E01282B31
:101FC000C90104C080E090E001C0CE01DF91CF9153
:101FD000089520E3829FC0011124FC012CE0729F30
:101FE000E00DF11D1124E60FF11DEE0FFF1FE85269
:101FF000FF4F8591949108950E94E90F0E94D70E9A
:1020000008958238910569F1B0F48133910509F49E
:102010006DC048F48932910509F463C08A32910594
:1020200009F469C008958533910509F455C08933D1
:102030009105B9F00895833E910569F138F4803E29
:102040009105B1F0823E910509F10895863E910512
:10205000A9F1873E9105B9F1843E910509F064C06C
:1020600023C02091840220FD4FC021FD4DC0089562
:102070008091840280FD44C08091850280FF44C02D
:102080008091840284FD42C083EE4DC08091840221
:1020900082FF38C0F5CF8091840282FD33C08091E9
:1020A000850280FD31C0ECCF8091850281FF32C076
:1020B0008091840284FD2AC087EE35C0809184021D
:1020C00083FF26C0F5CF8091840283FD21C08091DB
:1020D000850281FD1FC0ECCF8091840285FD1CC06C
:1020E0001DC08091840285FD19C016C080918402B4
:1020F00086FD16C017C08091840286FD13C010C0F3
:1021000089E311C082EE0FC080EE0DC080E00BC0ED
:1021100086EE09C084EE07C089E205C085E303C0EE
:102120008AE201C081E390E008959091840292FFD9
:102130000DC0282F2871283019F4877F846006C0CD
:10214000282F2471243011F48B7F886093FF0DC0F9
:10215000282F2871283119F4877E846106C0282F22
:102160002471243111F48B7E88612091850220FF37
:102170000DC0382F3871383019F4877F816006C060
:10218000382F3171313011F48E7F886021FF0DC0FE
:10219000282F2871283119F4877E816106C0282FE5
:1021A0002171213111F48E7E886194FD877E08951E
:1021B00080E008950C943C0D0E94EF112FEF86E70C
:1021C00091E0215080409040E1F700C000000E9463
:1021D000EF1180E00E94191180FF04C00E94DA1004
:1021E0000C945E1908950C94DC100E94420D81112C
:1021F00002C00E94EA0D0E944D0D809342020E948F
:10220000550D90938502809384020E94F3100E94E2
:10221000510D682F70E080E090E00E945E076091B1
:10222000AE017091AF018091B0019091B1010C9419
:102230009607E82FF0E0EE0FFF1FE257FD4F808179
:1022400091810895089580EA8A95F1F7089500C074
:1022500008950C94231108950C942B110C942C11B7
:102260000C942B110C943011F894E82FE295EF7038
:10227000F0E031A1282F2F7081E090E001C0880F9D
:102280002A95EAF7982F9095932391A392A1892BF1
:1022900082A3789408950F931F93CF93DF93C7E899
:1022A000D1E089918F3F11F00E94341181E0CB3849
:1022B000D807B9F7CBE7D1E007E811E089918F3F64
:1022C00011F00E9434110C171D07C1F7DF91CF9157
:1022D0001F910F910895BF92CF92DF92EF92FF92DC
:1022E0000F931F93CF93DF938C01C62FD0E0CE01C5
:1022F00089579E4F6C01FC0190819F3F09F450C0AB
:10230000B62EF894E92FE295EF70F0E081A19F706E
:1023100021E030E001C0220F9A95EAF7822B81A3D9
:1023200082A12095282322A378940E942711EBE70D
:10233000F1E047E851E021E030E0E12CF12C61913F
:102340006F3F89F0A62FA295AF70B0E090968C9168
:1023500090E06F7002C0959587956A95E2F780FDD1
:1023600002C0C90102C080E090E0E82AF92A220FE9
:10237000331F4E175F0719F7F60180818F3F11F069
:102380000E94341161E0E114F10409F460E08B2D46
:102390000E942911CC0FDD1FC00FD11FF982E882E6
:1023A000DF91CF911F910F91FF90EF90DF90CF9031
:1023B000BF9008950E944B1188E0EEE8F2E0DF0143
:1023C000982F1D929A95E9F7E6E8F2E0DF011D9259
:1023D0008A95E9F784E00E943A120C945002FF9229
:1023E0000F931F93CF93DF93CDB7DEB728970FB628
:1023F000F894DEBF0FBECDBF8E010F5F1F4F88E088
:10240000F80111928A95E9F7F12C6F2DC8010E940D
:102410006B11F394F4E0FF12F8CF48E050E0B801FC
:1024200086E892E00E947E20FF24F394009709F44E
:10243000F12C892B41F088E0F801A6E8B2E0019088
:102440000D928A95E1F72F2D44E06EE872E086E860
:1024500092E00E943B120E9452028F2D28960FB6E6
:10246000F894DEBF0FBECDBFDF91CF911F910F91CA
:10247000FF9008950895FF920F931F93CF93DF93DA
:10248000F82E092F162FD72FC42F222349F081E0D1
:10249000809345020E941119909344028093430255
:1024A000809145028823D9F08091430290914402A3
:1024B0000E942919059798F0EF2DF02FA12FBD2F1D
:1024C00080E090E04C2F50E08417950734F4219180
:1024D00031912D933D930196F7CF10924502DF91F4
:1024E000CF911F910F91FF9008950E94161B0E949B
:1024F0002E0E0C94221B0E94261B0E94D10E0C94BF
:10250000401B0E94AF180E94FD1A0E941C0E0E94E0
:1025100075120E947B120E94260EFBCF80914C0206
:1025200080FD30C081FF04C06091090184E00DC0CE
:1025300082FD2BC040914B02442351F19091080140
:102540006091090188E0491720F0689FB0011124CB
:102550000DC0689F90011124429FF001439FF00D30
:102560001124692F70E0CF010E945020603871055E
:1025700028F46115710521F0862F08958FE70895DD
:1025800081E0089561E070E0F7CF6FE770E0F4CF8D
:1025900068E070E0F1CF80914C0280FD2CC081FF9B
:1025A00006C06091050170E07595679518C082FDC1
:1025B0001FC080914B028823F1F0209104016091AB
:1025C0000501821710F070E007C0689FC001112458
:1025D000622F70E00E9450206038710528F4611568
:1025E000710521F0862F08958FE7089581E0089501
:1025F0006FE770E0F7CF61E070E0F4CF8D3E21F43B
:102600000E948E12819504C08E3E29F40E948E1283
:102610008093500208958F3E21F40E948E1281957E
:1026200004C0803F29F40E948E1280934F020895C7
:10263000893F19F40E94CB1205C08A3F31F40E94F1
:10264000CB1281958093510208958B3F21F40E9413
:10265000CB12819504C08C3F29F40E94CB12809349
:10266000520208959FE0980F983078F421E030E00E
:10267000A90102C0440F551F9A95E2F7CA01909133
:102680004E02892B80934E0208958D3F21F4809154
:102690004C0281600BC08E3F21F480914C0282601D
:1026A00005C08F3F29F480914C02846080934C02D6
:1026B00008958D3E39F49091500297FF35C01092E5
:1026C000500259C08E3E29F4909150021916BCF365
:1026D0002BC090914F028F3E29F497FF25C0109296
:1026E0004F0249C0803F19F41916CCF31DC09091D8
:1026F0005102893F29F41916BCF4109251023BC0D3
:102700008A3F19F497FF10C0F8CF8B3F39F49091AE
:10271000520297FF09C0109252022DC08C3F21F443
:10272000909152021916BCF39FE0980F983080F4F4
:1027300021E030E0A90102C0440F551F9A95E2F74D
:10274000CA01809590914E02892380934E0213C056
:102750008D3F21F480914C028E7F0BC08E3F21F47F
:1027600080914C028D7F05C08F3F29F480914C02EF
:102770008B7F80934C0280914F02811106C0809123
:102780005002811102C010924B02809151028111BE
:1027900006C080915202811102C010924A0208952F
:1027A0000E94111920914F02211104C02091500262
:1027B000222321F0909349028093480220915102F4
:1027C000211104C020915202222321F0909347024C
:1027D000809346028DE492E00C947D17EF92FF9275
:1027E0000F931F93CF93DF9300D000D000D0CDB7CD
:1027F000DEB786E0EDE4F2E0DE01119601900D9285
:102800008A95E1F7E0904F02F0905002009151025A
:102810001091520210924F021092500210925102E7
:1028200010925202E11003C0FF2009F45DC08091B4
:102830004802909149020E942919AC0190914B02E3
:10284000992339F020910A0130E02417350758F018
:102850004BC020910B018AE0289F9001112424177E
:10286000350718F041C09F3F19F09F5F90934B02CE
:10287000EE2061F00E948E121E1414F09FEF01C032
:1028800091E0989F902D112490934F02FF2061F0CA
:102890000E948E121F1414F09FEF01C091E0989FC8
:1028A000902D11249093500230914F023323E1F088
:1028B000209150022223C1F045EB3403C0011124C2
:1028C000992319F090934F0203C081E080934F0247
:1028D00035EB2303C0011124992319F09093500282
:1028E00003C081E080935002011103C0112309F459
:1028F0005DC080914602909147020E942919AC0167
:1029000090914A02992339F02091060130E0241772
:10291000350758F04BC0209107018AE0289F9001AD
:1029200011242417350718F041C09F3F19F09F5F0D
:1029300090934A02002361F00E94CB12101614F00B
:102940009FEF01C091E0989F902D11249093510228
:10295000112361F00E94CB12111614F09FEF01C0F9
:1029600091E0989F902D1124909352023091510242
:102970003323E1F0209152022223C1F045EB3403CE
:10298000C0011124992319F09093510203C081E0F2
:102990008093510235EB2303C0011124992319F0D0
:1029A0009093520203C081E08093520280914F02C3
:1029B00081110BC080915002811107C0809151029A
:1029C000811103C08091520281110E94D013EB82C9
:1029D000FC820D831E8386E0FE013196ADE4B2E0F9
:1029E00001900D928A95E1F726960FB6F894DEBF16
:1029F0000FBECDBFDF91CF911F910F91FF90EF9050
:102A00000895EDE4F2E086E0DF011D928A95E9F792
:102A100010924B0210924A0210924C020895CF93EA
:102A2000DF93EC01FB018281882309F43CC1C430AF
:102A3000FDE5DF0760F4CB3F9CE5D90788F49E01F4
:102A400022503C452431310508F02EC109C0C23660
:102A5000EDE5DE0729F0C63AFDE5DF0709F024C100
:102A60000E94550D9093850280938402C1318CE5BC
:102A7000D80709F4C6C008F042C0C930ECE5DE074B
:102A800009F49BC000F5C5308CE5D80709F485C072
:102A900078F4C330ECE5DE0709F478C008F07AC0BA
:102AA000C230DC4509F0F5C0809184028160EFC03E
:102AB000C7309CE5D90709F478C008F07AC0809146
:102AC00084028061E4C0CD30FCE5DF0709F487C0F3
:102AD00058F4CB309CE5D90709F479C008F07BC0E5
:102AE0008091840288606FC0CF30FCE5DF0709F475
:102AF00080C008F082C080918402877FC8C0CE3F2A
:102B00009CE5D90709F471C000F5C531FCE5DF0784
:102B100009F485C068F4C3319CE5D90709F475C090
:102B200008F095C00E940607809184028F77AFC09D
:102B3000CC3FFCE5DF07A9F108F054C0CB3FDC45F2
:102B400009F0A7C08091850240C0C230EDE5DE07E4
:102B500009F489C058F4C1158DE5D80709F45AC0A5
:102B600008F069C08091850282602FC0C236EDE511
:102B7000DE0709F47CC0C63AFDE5DF0709F481C031
:102B8000C330DD4509F085C080E06EC080918402CD
:102B900082607DC08091840216C08091840288602A
:102BA00076C08091850282604FC0809184028062ED
:102BB0006EC08091840280646AC00E940607809182
:102BC0008402806864C0846062C081603DC080917E
:102BD00084028E7F5CC0809184028D7F58C080917A
:102BE000840216C08091850218C0809185028D7F75
:102BF0002BC0809184028F7E4AC0809184028F7D99
:102C000046C0809184028F7B42C080918402877F7E
:102C10008B7F3DC0809185028D7F8E7F15C0809116
:102C2000840282FB222720F991E0922790FB82F90F
:102C300090FB83F92CC080918502982F909591701C
:102C40008E7F892B90FB81F98093850222C00E94A0
:102C500006078091840287FB222720F991E09227C2
:102C600090FB87F914C081E00E94EC0D12C08091A6
:102C7000840284FB222720F991E0922790FB84F9BB
:102C800006C080918402982F909590FB80F98093E4
:102C9000840280918402909185020E94660D0E94B8
:102CA000060780E001C081E0DF91CF910895CF93C6
:102CB000DF9386319C4541F5EB010E94590C982F1A
:102CC0008A812091020130910301882379F09A7A58
:102CD00081E009F480E080935302911102C069E21F
:102CE00001C065E3C9010E944D180AC080915302DA
:102CF000811102C069E201C065E3C9010E94581850
:102D00000E949B0C80E001C081E0DF91CF9108958B
:102D10000F931F93CF93DF93C42FD22FFC01828197
:102D20008823C9F0409356020E94111990935502CE
:102D30008093540280E28C0F883008F057C0C7702F
:102D400081E001C0880FCA95EAF7DF91CF911F910A
:102D50000F910C94630480915602481330C0809107
:102D60005402909155020E942919883C910538F52A
:102D700010E21D0FCD17B9F080E28C0F883040F4BF
:102D8000C77081E001C0880FCA95EAF70E946A0403
:102D9000183028F581E09D2F977001C0880F9A9513
:102DA000EAF70E946304802F0E945A041830F0F45E
:102DB000D77081E001C0880FDA95EAF70AC080E297
:102DC0008C0F883098F4C77081E001C0880FCA95D5
:102DD000EAF7DF91CF911F910F910C946A04802F35
:102DE000DF91CF911F910F910C945A04DF91CF91F5
:102DF0001F910F9108950F939C01CB01243F4CE547
:102E0000340731F188F4293DFCE53F07D9F02A3D2C
:102E10004CE5340779F1283D3C45A9F506E221EE61
:102E200041EE68ED7CE52BC0263FFCE53F07E1F075
:102E3000A8F0273F3C4539F507E225EE46EE67EF5F
:102E40007CE51DC007E225EE45EE69ED7CE517C087
:102E500006E221EE40EE64EF7CE511C007E225EECC
:102E600044EE65EF7CE50BC006E221EE42EE66EF34
:102E70007CE505C008E221E045EE6AED7CE50E94B4
:102E8000881680E008C0FC018281882319F0109226
:102E9000560201C081E00F91089590938D018093B7
:102EA0008C01089590935C0280935B020895E091F9
:102EB0005B02F0915C02309721F00190F081E02DEF
:102EC000099480E00895E0915B02F0915C023097F4
:102ED00099F020911801222359F02091840227FFB4
:102EE00007C0DC012C9111962C93119726E02C93AE
:102EF0000280F381E02D09940895E0915B02F09146
:102F00005C02309739F022E0DC012C930480F581DB
:102F1000E02D099408952091590230915A02281702
:102F2000390771F090935A0280935902E0915B0245
:102F3000F0915C02309721F00680F781E02D099432
:102F4000089520915702309158022817390771F0DF
:102F50009093580280935702E0915B02F0915C02DB
:102F6000309721F00084F185E02D09940895FC014B
:102F7000329680911801882331F08091840287FF76
:102F800002C09EE101C096E080E0915028F02191BE
:102F90002223D9F38F5FF9CF0895662351F1209151
:102FA00018012223E9F02091840227FF19C0462F3F
:102FB0004695469546954E31E0F4677021E030E045
:102FC00002C0220F331F6A95E2F7FC01E40FF11DE6
:102FD000828190E02823392381E0232B69F409C002
:102FE000FC01329608962191621729F0E817F9073B
:102FF000D1F780E0089581E008959C01FC013296AC
:103000009FEF80E04191461789F09F3F19F44111ED
:1030100001C0982F8F5F8630A9F79F3F39F0F901E3
:10302000E90FF11D97FDFA956283089508959C01BB
:103030002A5F3F4FFC014281461301C01282019674
:1030400082179307B9F70895262F2695269526957A
:103050002E3168F4FC01E20FF11D677021E030E0D1
:1030600001C0220F6A95EAF78281282B22830895F6
:10307000262F2695269526952E3170F4FC01E20F19
:10308000F11D677021E030E001C0220F6A95EAF778
:1030900020958281282322830895209118012223DC
:1030A00029F02091840227FD0C9424180C94FD171C
:1030B00020911801222329F02091840227FD0C94ED
:1030C00038180C94171820911801FC01329622230D
:1030D00031F08091840287FF02C08EE101C086E05A
:1030E000DF011D928A95E9F7089508950C947518EB
:1030F00083E080935D020C947618811102C081E018
:1031000001C082E080935D020C9476180C947D18C7
:1031100081E080935D020C9476180C9488180895D1
:103120000C948F180C9490180C948F180C948F1882
:103130000C948F18CF930E9496180E94EF110E9452
:103140009418C0E08C2F0E941911892B29F4CF5FAD
:10315000C430C1F780E001C081E0CF9108950895A7
:103160001F920F920FB60F9211248F939F93AF93DC
:10317000BF9380915E02811113C08091960290915D
:103180009702A0919802B09199024196A11DB11D9C
:103190008093960290939702A0939802B09399021D
:1031A000BF91AF919F918F910F900FBE0F901F9085
:1031B000189580919E02843031F10E94B6021092DF
:1031C0005E0220E488E190E00FB6F894A895809321
:1031D00060000FBE2093600083B7817F846083BF4F
:1031E00083B7816083BF7894889583B78E7F83BFD0
:1031F0000FB6F894A8958091600088618093600074
:10320000109260000FBE08950E9406070C94BA0247
:1032100082E084BD93E095BD9AEF97BD80936E00E8
:1032200008952FB7F8948091960290919702A091FB
:103230009802B09199022FBF08952FB7F89460912A
:1032400096027091970280919802909199022FBFF7
:1032500008959C014FB7F89480919602909197023F
:10326000A0919802B09199024FBF821B930B0895D1
:1032700078941F920F920FB60F9211248F939F9301
:10328000AF93BF938091960290919702A09198027C
:10329000B09199020196A11DB11D80939602909361
:1032A0009702A0939802B0939902BF91AF919F911A
:1032B0008F910F900FBE0F901F90189587E797E79B
:1032C00090930108809300089AE088E10FB6F89483
:1032D000A895809360000FBE90936000FFCF80910F
:1032E00082020895089522E02093E9002FEF3091A3
:1032F000E800215035FD06C035ED3A95F1F70000A4
:103300002111F5CF2091E80025FF0BC040E050E0EF
:1033100066E070E00E94B21B8091E8008E77809397
:10332000E8000895CF93DF9320911801222339F00C
:103330002091840227FF03C060E222E002C068E01F
:1033400021E02093E9002FEF3091E800215035FD76
:1033500006C035ED3A95F1F700002111F5CF209127
:10336000E80025FF1DC0EC0180911801811105C006
:1033700040E050E068E070E003C070E040E050E002
:10338000CE010E94B21B8091E8008E778093E80006
:1033900080E2FE01A2E6B2E001900D928A95E1F78B
:1033A000DF91CF91089580935F02709361026093E3
:1033B000600280919E02843001F582E08093E900F2
:1033C0008FEF9091E800815095FD06C095ED9A959C
:1033D000F1F700008111F5CF8091E80085FF0DC065
:1033E00040E050E063E070E08FE592E00E94B21BA5
:1033F0008091E8008E778093E8000895BC0184E016
:103400000C94D319BC0183E00C94D31980919D02D4
:10341000811109C00E94431D0E94A01D8091E200FD
:1034200084608093E200089510929D0208950C94A8
:103430008D1860919A0281E0611101C080E00C94C6
:10344000781890919E0281E0943009F080E06091BC
:103450009A020C947D1842E061EC81E00E94BC1C51
:1034600042E261EC82E00E94BC1C90919E0281E0ED
:10347000943009F080E060919A020C948618809153
:10348000A002833009F461C030F4813071F08230E1
:1034900009F49AC008958A3009F486C08B3009F483
:1034A0006CC0893009F0A8C020C080919F02813A89
:1034B00009F0A2C08091E800877F8093E8008091A6
:1034C000A3029091A402892B21F460E282E692E0AB
:1034D00003C060E080E090E070E00E94FD1B8091FE
:1034E000E8008B778093E800089580919F028132F5
:1034F00009F082C08091A3029091A402029708F083
:103500007BC08091E800877F8093E8008091E8008D
:1035100082FD05C080919E028111F8CF6DC020917F
:10352000F3008091F20090E0922B029731F48091A9
:10353000F100813011F0863021F48091F100809308
:1035400082028091E8008B7753C080919F02813A7C
:1035500009F052C08091A3029091A402892B09F036
:103560004BC08091E800877F8093E8008091E8005D
:1035700080FFFCCF8091180136C080919F0281327C
:10358000D9F58091A3029091A402892BA9F580918D
:10359000E800877F8093E8000E94F11C8091A102DF
:1035A000809318010C94060780919F02813221F5C7
:1035B0008091E800877F8093E8000E94F11C809151
:1035C000A20280938302089580919F02813AA1F420
:1035D0008091E800877F8093E8008091E80080FF79
:1035E000FCCF809183028093F1008091E8008E7778
:1035F0008093E8000C94F11C089584B7877F84BF02
:103600000FB6F894A895809160008861809360005F
:10361000109260000FBE90E080E80FB6F89480939F
:103620006100909361000FBE0C9488180E94431DA6
:103630000E94A01DE2EEF0E0808184608083789497
:103640000C9435208CE091E00C94521780919E02EE
:103650008530A9F480919E02853079F40E94D918B2
:1036600080919C028823B1F30E949A18882391F3D9
:103670000E949C1B0E940607EDCF0C94041908952C
:1036800008950C94431B292F332723303105C9F0AB
:1036900060F42130310581F02230310509F044C059
:1036A0008BE390E02AE732E043C021323105E1F0BC
:1036B0002232310549F138C082E190E025EB32E059
:1036C00037C099278130910549F028F0029761F5BC
:1036D000E8E5F2E005C0E6E7F2E002C0EAE6F2E083
:1036E000849190E09F0124C06115710541F0613023
:1036F0007105D1F489E090E025EA32E019C089E053
:1037000090E02CE832E014C06115710541F06130A1
:10371000710551F486EB90E027EC32E009C080E4BB
:1037200090E02DE733E004C080E090E020E030E05E
:10373000FA0131832083089580E189BD82E189BD4A
:1037400009B400FEFDCF8091D8008F7D8093D80012
:103750008091E00082608093E0008091E00081FD34
:10376000FCCF0895CF92DF92EF92FF920F931F93B9
:10377000CF93DF93EC018B017A010E94101D811120
:1037800033C0E114F10439F0F70180819181081B05
:10379000190BC80FD91FC12CD12C0115110519F116
:1037A0008091E80085FD16C08091E8008E778093B7
:1037B000E800E114F10449F0F70180819181C80E1D
:1037C000D91ED182C08285E00FC00E94101D8823BF
:1037D00021F30AC089918093F10001501109FFEF94
:1037E000CF1ADF0ADACF80E0DF91CF911F910F91DE
:1037F000FF90EF90DF90CF9008952091A502309137
:10380000A6022617370748F06115710539F4209193
:10381000E8002E772093E80001C0B901FC0120E008
:103820006115710579F180919E028823F1F185304F
:10383000F1F18091E80083FD3CC08091E80082FDB9
:103840002EC08091E80080FFEBCF2091F3008091A3
:10385000F20090E0922B6115710551F088309105CE
:1038600038F421912093F100615071090196F3CF52
:1038700021E0089709F020E08091E8008E7780939E
:10388000E800CECF2111CFCF0AC080919E028823BD
:1038900061F0853061F08091E80083FD0AC080917D
:1038A000E80082FFF2CF80E0089582E0089583E08F
:1038B000089581E008952091A5023091A60226176F
:1038C000370748F06115710539F42091E8002E772B
:1038D0002093E80001C0B901FC0120E061157105E9
:1038E00091F180919E02882309F440C0853009F44B
:1038F0003FC08091E80083FD3DC08091E80082FDDB
:103900002FC08091E80080FFE9CF2091F3008091E3
:10391000F20090E0922B6115710559F08830910505
:1039200040F424912093F100319661507109019681
:10393000F2CF21E0089709F020E08091E8008E772F
:103940008093E800CBCF2111CCCF0AC080919E029A
:10395000882361F0853061F08091E80083FD0AC022
:103960008091E80082FFF2CF80E0089582E0089520
:1039700083E0089581E00895982F973068F590933B
:10398000E900981739F07091EC002091ED0050910A
:10399000F00003C0242F762F50E021FD02C09F5F6E
:1039A000ECCF3091EB003E7F3093EB003091ED0097
:1039B0003D7F3093ED003091EB0031603093EB00B0
:1039C0007093EC002093ED005093F0002091EE00F6
:1039D00027FDE5CF80E008958F708093E90081E0B6
:1039E000089580919F0287FF11C08091E80082FDB9
:1039F00005C080919E028111F8CF11C08091E8002E
:103A00008B770BC080919E02882349F08091E8005B
:103A100080FFF8CF8091E8008E778093E8000895CA
:103A20002091E4003091E50095E64091EC00842F70
:103A3000817040FF23C08091E80080FD1DC080910F
:103A40009E02882399F0853099F08091EB0085FDE6
:103A500011C04091E4005091E5002417350729F387
:103A6000915011F09A01E1CF84E0089582E0089529
:103A700083E0089581E0089580E008954091E80092
:103A800042FFDDCF08950E94B11D0E94B91DE0EEF6
:103A9000F0E0808181608083E8EDF0E080818F77C5
:103AA000808319BCA7EDB0E08C918E7F8C938081D0
:103AB0008F7E808310929D0208950F931F93CF9362
:103AC000DF930E94B11D0E94B91DC8EDD0E088812E
:103AD0008F77888388818068888388818F7D8883B9
:103AE00019BC10929E0210929A0210929C0210929F
:103AF0009B0200EE10E0F80180818B7F808388813B
:103B00008160888342E060E080E00E94BC1CE1EEBE
:103B1000F0E080818E7F8083E2EEF0E08081816042
:103B20008083808188608083F80180818E7F80839C
:103B3000888180618883DF91CF911F910F910895D3
:103B4000E8EDF0E080818F7E8083E7EDF0E080811A
:103B50008160808384E082BF81E080939D020C9429
:103B60005D1DE8EDF0E080818E7F80831092E200A1
:103B700008951092DA001092E10008951F920F92BA
:103B80000FB60F9211242F933F934F935F936F9330
:103B90007F938F939F93AF93BF93EF93FF93809106
:103BA000E10082FF0BC08091E20082FF07C080919C
:103BB000E1008B7F8093E1000E9434208091DA0045
:103BC00080FF1FC08091D80080FF1BC08091DA0069
:103BD0008E7F8093DA008091D90080FF0DC080E154
:103BE00089BD82E189BD09B400FEFDCF81E08093EB
:103BF0009E020E94061A05C019BC10929E020E94E5
:103C0000141A8091E10080FF19C08091E20080FFCA
:103C100015C08091E2008E7F8093E2008091E200E7
:103C200080618093E2008091D80080628093D80008
:103C300019BC85E080939E020E94191A8091E100D0
:103C400084FF30C08091E20084FF2CC080E189BDF8
:103C500082E189BD09B400FEFDCF8091D8008F7D3F
:103C60008093D8008091E1008F7E8093E100809165
:103C7000E2008F7E8093E2008091E2008160809379
:103C8000E20080919A02882311F084E007C08091BD
:103C9000E30087FD02C081E001C083E080939E02C3
:103CA0000E94211A8091E10083FF29C08091E200E7
:103CB00083FF25C08091E100877F8093E10082E04F
:103CC00080939E0210929A028091E1008E7F8093F1
:103CD000E1008091E2008E7F8093E2008091E2001B
:103CE00080618093E20042E060E080E00E94BC1CC2
:103CF0008091F00088608093F0000E94171AFF9175
:103D0000EF91BF91AF919F918F917F916F915F9153
:103D10004F913F912F910F900FBE0F901F901895CC
:103D20001F920F920FB60F9211242F933F934F9330
:103D30005F936F937F938F939F93AF93BF93CF9333
:103D4000DF93EF93FF93C091E900CF708091EC0077
:103D5000D82FD17080FDD0E81092E9008091F0005A
:103D6000877F8093F00078940E94D41E1092E9001F
:103D70008091F00088608093F000CD2BCF70C093CD
:103D8000E900FF91EF91DF91CF91BF91AF919F91AA
:103D90008F917F916F915F914F913F912F910F90F4
:103DA0000FBE0F901F9018951F93CF93DF93CDB741
:103DB000DEB7AA970FB6F894DEBF0FBECDBFEFE90E
:103DC000F2E08091F100819322E0E73AF207C9F72F
:103DD0000E943F1A8091E80083FF2EC180919F02CC
:103DE0009091A002492F50E04A30510508F024C1BB
:103DF000FA01EE59FF4F0C946420803821F082388C
:103E000009F01AC108C080919B0290919C029923ED
:103E100089F082600FC08091A3028F70873008F014
:103E20000BC18093E9008091EB0085FB882780F926
:103E30001092E9009091E800977F9093E8008093BA
:103E4000F1001092F100D1C0282F2D7F09F0F4C0AD
:103E5000882319F0823061F0EFC08091A102813097
:103E600009F0EAC0933009F080E080939C022EC0F4
:103E70008091A10281112AC08091A3028F702FEF3F
:103E8000280F263008F0D8C08093E9002091EB007D
:103E900020FF1CC0933021F48091EB00806214C09D
:103EA0009091EB0090619093EB0021E030E0A9014C
:103EB00002C0440F551F8A95E2F74093EA00109222
:103EC000EA008091EB0088608093EB001092E9009B
:103ED0008091E800877F8093E8000E94F11CACC0CD
:103EE0008111AAC01091A1021F778091E300807810
:103EF000812B8093E3008091E800877F8093E80026
:103F00000E94F11C8091E80080FFFCCF8091E300CB
:103F100080688093E300111102C082E001C083E059
:103F200080939E0289C08058823008F085C08091BD
:103F3000A1029091A2028C3D53E0950779F583E0B0
:103F40008A838AE289834FB7F894DE01139620E0D2
:103F50003EE051E2E32FF0E050935700E49120FF60
:103F600003C0E295EF703F5FEF708E2F90E0EA3074
:103F700010F0C79601C0C0968D939D932F5F24319A
:103F800049F74FBF8091E800877F8093E8006AE29D
:103F900070E0CE0101960E94FD1B16C06091A30245
:103FA0007091A402AE014F5F5F4F0E94411BBC01A4
:103FB000892B09F441C09091E800977F9093E80025
:103FC00089819A810E945B1C8091E8008B778093A5
:103FD000E80032C0803881F58091E800877F8093C7
:103FE000E80080919A028093F1008091E8008E773A
:103FF00072CF811121C08091A1029091A2029927D4
:104000000297D4F48091E800877F8093E800809144
:10401000A10280939A020E94F11C80919A02811160
:1040200006C08091E30087FD02C081E001C084E00A
:1040300080939E020E942B1A8091E80083FF0AC0A1
:104040008091E800877F8093E8008091EB00806298
:104050008093EB00AA960FB6F894DEBF0FBECDBFDB
:10406000DF91CF911F9108950895CF9380919E0283
:104070008823A1F0C091E900CF709091EC00892FC6
:10408000817090FD80E8C82B1092E9008091E800D3
:1040900083FD0E94D41ECF70C093E900CF91089594
:1040A00097FB072E16F4009407D077FD09D00E94E5
:1040B0006A2007FC05D03EF4909581959F4F0895A6
:1040C000709561957F4F0895EE0FFF1F0590F49155
:1040D000E02D0994AA1BBB1B51E107C0AA1FBB1FFF
:1040E000A617B70710F0A61BB70B881F991F5A9584
:1040F000A9F780959095BC01CD010895FB01DC01E5
:1041000004C08D910190801921F441505040C8F7AE
:10411000881B990B0895F999FECF92BD81BDF89A3D
:10412000992780B50895A8E1B0E042E050E00C94F2
:10413000BF20262FF999FECF92BD81BDF89A019735
:1041400000B4021639F01FBA20BD0FB6F894FA9ADF
:10415000F99A0FBE08950396272F0E949A200E9475
:104160009920252F0E949A20242F0C949A200196A2
:10417000272F0E949A200C949920DC01CB01FC018E
:10418000F999FECF06C0F2BDE1BDF89A319600B4B0
:0E4190000D9241505040B8F70895F894FFCFBB
:10419E00C8001002280850011E0A14016F19921946
:1041AE007319021AFE19721901E200E900EA00B54C
:1041BE0000B600B700CD008301CC008A01920194B5
:1041CE00012102230224022502260227022A02B31B
:1041DE0000B4006F007000818283E200E900EA0003
:1041EE00B500B600B700CD008301CC008A01920164
:1041FE0094012102230224022502260227022A020A
:10420E00B300B4006F00700081828397C6343536D8
:0C421E00323331F7F6F5F49392919400DE
:00000001FF
